:020000040800F2
:10000000280C0020450100080F0400080704000820
:100010000B040008B90100080F0A000800000000E6
:10002000000000000000000000000000D5050008EE
:10003000BD01000800000000BD040008C106000862
:100040005F0100085F0100085F0100085F01000810
:100050005F0100085F0100085F0100085F01000800
:100060005F0100085F0100085F0100085F010008F0
:100070005F0100085F0100085F0100085F010008E0
:100080005F0100085F0100085F0100085F010008D0
:100090005F0100085F0100085F0100085F010008C0
:1000A0005F0100085F0100085F0100085F010008B0
:1000B0005F0100085F0100085F0100085F010008A0
:1000C0005F0100085F0100085F0100085F01000890
:1000D0005F010008950700085F0100085F01000844
:1000E0005F0100085F0100085F0100085F01000870
:1000F0005F0100085F0100085F0100085F01000860
:100100005F0100085F0100085F0100085F0100084F
:100110005F0100085F010008290700085F0100086F
:100120005F0100085F0100085F0100085F0100082F
:10013000DFF80CD000F02EF800480047790C0008DA
:10014000280C00200648804706480047FEE7FEE7E7
:10015000FEE7FEE7FEE7FEE7FEE7FEE7FEE7FEE777
:10016000C90600083101000830B50B4601460020E1
:100170002022012409E021FA02F59D4205D303FA69
:1001800002F5491B04FA02F52844151EA2F10102EA
:10019000F1DC30BD064C074D06E0E06840F001039D
:1001A00094E8070098471034AC42F6D3FFF7C4FF39
:1001B000300D0008500D000800BFFEE7704700003A
:1001C00008B50121082000F08BF94FF48070ADF8DC
:1001D000000010208DF8030003208DF8020069460E
:1001E000074800F083F80121082000F079F94FF466
:1001F0000070ADF800006946014800F077F808BDCE
:10020000000C014010B5FFF7DBFF00F00DF84FF4D4
:100210000071044800F0F5F84FF48071014800F0D7
:10022000F0F810BD000C014000B585B00121880434
:1002300000F046F90121082000F052F94FF48060E7
:10024000ADF8100018208DF8130003208DF812006F
:1002500004A91A4800F04AF84FF40060ADF8100005
:1002600004208DF8130004A9144800F03FF84FF45F
:10027000E13000900020ADF80400ADF80600ADF8C4
:100280000800ADF80C000C20ADF80A0069460C48D7
:1002900000F048FB012240F22551094800F01DFB07
:1002A000012240F22441064800F017FB00F00AF852
:1002B0000121034800F080FA05B000BD000C0140A8
:1002C0000048004008B54FF4A06000F0EDF827208A
:1002D0008DF8000000208DF801008DF8020001204B
:1002E0008DF80300684600F0A7F808BD2DE9F0413D
:1002F000024600250026002000230024002791F854
:1003000003C00CF00F0591F803C00CF0100CBCF109
:10031000000F03D091F802C04CEA050591F800C027
:10032000BCF1000F31D0146800202BE04FF0010C1D
:100330000CFA00F3B1F800C00CEA03069E4220D18B
:1003400083004FF00F0C0CFA03F7BC4305FA03FCD3
:100350004CEA040491F803C0BCF1280F06D14FF019
:10036000010C0CFA00FCC2F814C00AE091F803C0BA
:10037000BCF1480F05D14FF0010C0CFA00FCC2F89B
:1003800010C0401C0828D1D31460B1F800C0BCF1E3
:10039000FF0F34DD546800202EE000F1080C4FF010
:1003A000010808FA0CF3B1F800C00CEA03069E42FB
:1003B00021D183004FF00F0C0CFA03F7BC4305FA70
:1003C00003FC4CEA040491F803C0BCF1280F05D1EA
:1003D00000F1080C08FA0CF8C2F8148091F803C078
:1003E000BCF1480F07D100F1080C4FF0010808FAE2
:1003F0000CF8C2F81080401C0828CED35460BDE829
:10040000F0810161704700BFFEE700BFFEE7704763
:1004100008B54FF4A06000F047F825208DF80000E3
:1004200001208DF801008DF802008DF80300684668
:1004300000F002F808BD000070B5002100230F2273
:10044000C47804B3154C246804F4E064C4F5E06493
:10045000210AC1F10403CA40447804FA03F1847804
:100460001440214309010E4C0678A155047804F08C
:100470001F050124AC4005786D11AD0005F1E025A4
:10048000C5F8004109E0047804F01F050124AC40E0
:10049000044D0678761145F8264070BD0CED00E05D
:1004A00000E400E080E100E002490143024A1160FB
:1004B000704700000000FA050CED00E070470000F6
:1004C00029B1064AD2690243044BDA6104E0034AC7
:1004D000D2698243014BDA6170470000001002408C
:1004E00029B1064A92690243044B9A6104E0034A27
:1004F00092698243014B9A617047000000100240EC
:1005000030B500210022002400232D4D6D6805F038
:100510000C0121B1042905D0082923D105E0294D7A
:10052000056022E0274D05601FE0254D6D6805F44C
:100530007012234D6D6805F48034022505EB92425C
:100540001CB9214D554305600BE01D4D6D6805F448
:1005500000351DB11C4D5543056002E0194D554352
:10056000056002E0174D056000BF00BF144D6D68C7
:1005700005F0F0010909154D6B5C0568DD4045602B
:100580000F4D6D6805F4E061090A104D6B5C45681C
:10059000DD4085600A4D6D6805F46051C90A0B4D58
:1005A0006B5C4568DD40C560054D6D6805F44041F4
:1005B000890B074D6B5CC568B5FBF3F5056130BD74
:1005C0000010024000127A0000093D0008000020DF
:1005D00018000020704710B500F002F810BD0000B0
:1005E0000CB50020019000903348006840F4803042
:1005F0003149086000BF3048006800F400300090C6
:100600000198401C0190009818B90198B0F5A06FAE
:10061000F1D12948006800F4003010B101200090A9
:1006200001E0002000900098012843D12348006891
:1006300040F01000214908600846006820F00300DF
:1006400008600846006840F0020008601A484068E8
:10065000194948600846406848600846406840F4C8
:10066000806048600846406820F47C104860084676
:10067000406840F4E81048600846006840F0807028
:10068000086000BF0C48006800F000700028F9D036
:100690000948406820F00300074948600846406860
:1006A00040F00200486000BF0348406800F00C00C2
:1006B0000828F9D10CBD00000010024000200240C3
:1006C00010B500F05BF810BD10B51348006840F09D
:1006D00001001149086008464068104908400E4969
:1006E0004860084600680E4908400B490860084603
:1006F000006820F4802008600846406820F4FE006E
:1007000048604FF41F008860FFF765FF4FF00060FE
:100710000449086010BD0000001002400000FFF80E
:10072000FFFFF6FE08ED00E010B50121074800F0DC
:1007300014F8012808D106480068401C04490860E4
:100740000121024800F006F810BD00000010004032
:1007500004000020CA430282704730B502460020E0
:1007600000230024158A05EA0103958905EA01049E
:1007700013B10CB1012000E0002030BD0448006836
:1007800020B103480068401E01490860704700001E
:100790000000002010B540F22551064800F073F823
:1007A00038B1044800F02AF9C4B22146014800F0EB
:1007B0002AF910BD0038014021B1828942F400526B
:1007C000828104E082894DF6FF731A40828170476E
:1007D00000B585B001210420FFF782FE01218803C6
:1007E000FFF77EFE4FF40070ADF8100018208DF872
:1007F000130003208DF8120004A91A48FFF776FDB4
:100800004FF48060ADF8100004208DF8130004A9A7
:100810001448FFF76BFD4FF4E13000900020ADF875
:100820000400ADF80600ADF80800ADF80C000C208F
:10083000ADF80A0069460C4800F074F8FFF7E8FDCF
:10084000012240F22551084800F047F8012240F209
:100850002441054800F041F801210348FFF7ACFFAF
:1008600005B000BD000801400038014002460020EC
:10087000B1F5007F00D100BF13880B400BB1012000
:1008800000E00020704770B50246002400230025D8
:10089000002040F66A16B14200D100BFC1F34215F4
:1008A00001F01F03012606FA03F3012D02D19689F8
:1008B000334006E0022D02D1168A334001E0968AC9
:1008C00033400C12012606FA04F41688344013B1A2
:1008D0000CB1012000E0002070BDF0B503460024FB
:1008E00000260025002040F66A17B94200D100BF5B
:1008F0001846C1F3421401F01F06012707FA06F556
:10090000012C01D10C3004E0022C01D1103000E0A8
:1009100014301AB107682F43076002E00768AF433D
:100920000760F0BD2DE9F04786B005460E4600246D
:10093000A24600BFA1460027B08900B100BF2F46E4
:100940002C8A4CF6FF700440F08804432C82AC895A
:100950004EF6F3100440B08831890843718908438A
:100960000443AC81AC8A4FF6FF400440B089044395
:10097000AC8201A8FFF7C4FD1F48874202D1DDF811
:1009800010A001E0DDF80CA0A88900F4004040B1FF
:100990000AEBCA0000EB0A1031684900B0FBF1F81D
:1009A00007E00AEBCA0000EB0A1031688900B0FBCF
:1009B000F1F86420B8FBF0F004012009642101FB88
:1009C0001089A88900F4004040B1322000EBC90032
:1009D000B0FBF1F000F00700044308E0322000EB28
:1009E00009106421B0FBF1F000F00F0004432C81EA
:1009F00006B0BDE8F0870000003801400146888855
:100A0000C0F308007047C1F308028280704700BF3E
:100A1000FEE770B504460D4629462046FFF7F3FF72
:100A200000BF80212046FFF721FF0028F9D070BDCC
:100A300070B506460C46002500BF615D3046FFF7E5
:100A4000E8FF6D1C605D0028F7D100BF40213046F3
:100A5000FFF70CFF0028F9D070BD00000FB4054B64
:100A600010B503A9044A029800F018F810BC5DF80C
:100A700014FB0000550C00081C00002002E008C810
:100A8000121F08C1002AFAD170477047002001E008
:100A900001C1121F002AFBD1704700002DE9FF4F52
:100AA0008BB09A460F460546002606E025280BD057
:100AB00052460D9990476D1C761C28780028F5D178
:100AC0000FB03046BDE8F08F0024A04601226049F7
:100AD00000E0044315F8013F203B02FA03F008420E
:100AE000F7D128782E2817D115F8010F44F0040407
:100AF0002A280ED06FF02F022878A0F130010929A2
:100B00000AD808EB880102EB410100EB01086D1CDB
:100B1000F2E757F8048B6D1C287869283ED006DC74
:100B20000028CDD063280BD0642804D136E0732888
:100B300010D075284BD052460D999047761C85E011
:100B400017F8040B8DF8000000208DF80100E9462D
:100B5000012003E057F8049B4FF0FF3061074FF08E
:100B6000000401D40AE0641C44450DDA8442FADB37
:100B700019F804100029F6D106E0641C8442FCDB5D
:100B800019F804100029F8D1264404E019F8010BE3
:100B900052460D999047641EF8D257E001CF4FF0AE
:100BA0000A0B002802DA40422D2102E0210504D57B
:100BB0002B218DF82410012103E0E10705D020212D
:100BC000F7E70DF1200908910CE00021F9E701CFCA
:100BD0004FF00A0BF9E75946FFF7C6FA01F1300268
:100BE00009F8012D0028F6D1ADEB090000F1200B2A
:100BF000600701D44FF00108D84502DDA8EB0B00D7
:100C000000E000208046002406E009A85246005D6E
:100C10000D999047641C761C08988442F5DB04E02B
:100C2000302052460D999047761CB8F10001A8F18A
:100C30000108F5DC05E019F8010B52460D999047C3
:100C4000761CBBF10001ABF1010BF4DC6D1C34E749
:100C50000928010070B504460D46E1B20548FFF7CA
:100C6000D2FE00BF80210348FFF700FE0028F9D024
:100C7000204670BD00380140FFF7AAFDFFF7C2FA19
:100C800023A0FFF7EBFE41E02548B0F80004012166
:100C9000B1EBD03F1AD100202149B1F80014C1F3C3
:100CA0000E011F4A505411461E48FFF7C1FE1C4852
:100CB000B0F800046FF30E001949A1F800040846CB
:100CC000B0F8000420F40040A1F800041648B0F881
:100CD0000004C00BD0B100201349B1F80014C1F3D7
:100CE0000E01114A505411461048FFF7A1FE0E485C
:100CF000B0F800046FF30E000B49A1F80004084699
:100D0000B0F8000420F40040A1F80004BCE70000A3
:100D100045535038323636205445530A0A000000F5
:100D2000220400200048004020000020003801403C
:100D3000500D000800000020200000007C0A000880
:100D4000700D000820000020080C00008C0A00082C
:100D50000000000000000000000000000102030489
:100D60000102030406070809020406080000000047
:0400000508000131BD
:00000001FF
