:020000040800F2
:100000003804002049010008C9140008CB14000876
:10001000CF140008D3140008D71400080000000013
:10002000000000000000000000000000DB140008D9
:10003000DD14000800000000DF140008E1140008CF
:100040006301000863010008630100086301000800
:1000500063010008630100086301000863010008F0
:1000600063010008630100086301000863010008E0
:1000700063010008630100086301000863010008D0
:1000800063010008630100086301000863010008C0
:1000900063010008630100086301000863010008B0
:1000A00063010008630100086301000863010008A0
:1000B0006301000863010008630100086301000890
:1000C0006301000863010008630100086301000880
:1000D0006301000863010008630100086301000870
:1000E0006301000863010008630100086301000860
:1000F0006301000863010008630100086301000850
:10010000630100086301000863010008630100083F
:10011000630100086301000863010008630100082F
:10012000630100086301000863010008630100081F
:10013000DFF810D001F0BEFF00480047731100083F
:10014000AFF3008038040020064880470648004787
:10015000FEE7FEE7FEE7FEE7FEE7FEE7FEE7FEE777
:10016000FEE7FEE74B020008310100080CB5002055
:10017000019000906C48006840F480306A49086043
:1001800000BF6948006800F4003000900198401CEE
:100190000190009818B90198B0F5A06FF1D16248AC
:1001A000006800F4003010B10120009001E0002050
:1001B00000900098012843D15C48006840F010008E
:1001C0005A4908600846006820F0030008600846A5
:1001D000006840F002000860534840685249486097
:1001E0000846406848600846406840F480604860BF
:1001F0000846406820F47C1048600846406840F497
:10020000E81048600846006840F08070086000BF51
:100210004548006800F000700028F9D04248406866
:1002200020F00300404948600846406840F0020062
:10023000486000BF3C48406800F00C000828F9D135
:100240000CBD10B5FFF792FF10BD10B53648006821
:1002500040F00100344908600846406834490840CD
:100260003149486008460068324908402E49086014
:100270000846006820F4802008600846406820F4A2
:10028000FE0048604FF41F008860FFF7DAFF4FF070
:1002900000602949086010BD10B50021002000222F
:1002A000214B5B6803F00C0121B1042906D0082919
:1002B00028D107E0214B224C236027E01F4B204C24
:1002C000236023E0184B5B6803F47010164B5B68E7
:1002D00003F48032022303EB904022B9194B4343CD
:1002E000174C23600DE0104B5B6803F4003323B11F
:1002F000144B4343124C236003E0104B4343104C18
:10030000236003E00D4B0E4C236000BF00BF064B83
:100310005B68C3F303130C4CE15C094B1B68CB40D7
:10032000074C236010BD0000001002400020024076
:100330000000FFF8FFFFF6FE08ED00E000127A0073
:100340000000002000093D000400002010B5044614
:10035000CC48844208D10121042000F02DFB00216B
:10036000042000F029FB46E0C748844208D101215F
:10037000082000F021FB0021082000F01DFB3AE0DE
:10038000C248844208D10121102000F015FB002151
:10039000102000F011FB2EE0BD48844208D101215D
:1003A000202000F009FB0021202000F005FB22E0C6
:1003B000B848844208D10121402000F0FDFA002114
:1003C000402000F0F9FA16E0B348844208D1012138
:1003D000802000F0F1FA0021802000F0EDFA0AE020
:1003E000AE48844207D10121801500F0E5FA0021D2
:1003F000A01500F0E1FA10BD10B50121084600F08B
:10040000DBFA0021012000F0D7FA10BD2DE9F04100
:10041000024600250026002000230024002791F832
:1004200003C00CF00F0591F803C00CF0100CBCF1E8
:10043000000F03D091F802C04CEA050591F800C006
:10044000BCF1000F31D0146800202BE04FF0010CFC
:100450000CFA00F3B1F800C00CEA03069E4220D16A
:1004600083004FF00F0C0CFA03F7BC4305FA03FCB2
:100470004CEA040491F803C0BCF1280F06D14FF0F8
:10048000010C0CFA00FCC2F814C00AE091F803C099
:10049000BCF1480F05D14FF0010C0CFA00FCC2F87A
:1004A00010C0401C0828D1D31460B1F800C0BCF1C2
:1004B000FF0F34DD546800202EE000F1080C4FF0EF
:1004C000010808FA0CF3B1F800C00CEA03069E42DA
:1004D00021D183004FF00F0C0CFA03F7BC4305FA4F
:1004E00003FC4CEA040491F803C0BCF1280F05D1C9
:1004F00000F1080C08FA0CF8C2F8148091F803C057
:10050000BCF1480F07D100F1080C4FF0010808FAC0
:100510000CF8C2F81080401C0828CED35460BDE807
:10052000F0814FF6FF710180022181700421C170BA
:1005300070470246002093680B400BB1012000E099
:10054000002070470146886880B27047024600204C
:10055000D3680B400BB1012000E00020704701463A
:10056000C86880B2704701617047416170470AB145
:10057000016100E041617047C16070474FF4803213
:100580000A438261816182618269826970470246A1
:100590000020434B18684FF68073184040EA021061
:1005A00008433F4B186070473E49C8617047F0B53B
:1005B0000A46002300240021002500F00046B6F181
:1005C000004F02D1364EF16901E0354E7168C0F33B
:1005D000034583B200F44016B6F5401F08D121F060
:1005E00070612F4E766826F070662D4F7E6012E0A7
:1005F00000F48016B6F5801F06D1032606FA05F42E
:10060000A14341F0706106E0460D360103FA06F69B
:10061000B14341F0706122B1460D360103FA06F68E
:10062000314300F00046B6F1004F02D11C4EF1619B
:1006300001E01B4E7160F0BD30B500228B071C0F2E
:100640000F2303FA04F2164B08338C1053F82430AE
:100650009343134C08348D1044F8253023468C10F6
:1006600053F824308C07240F00FA04F423430C4C75
:1006700008348D1044F8253030BD0A49DC3108605B
:100680007047000000080140000C014000100140CC
:100690000014014000180140001C014000200140EE
:1006A0000000014000002042DF48006840F00100E7
:1006B000DD49086008464068DC490840DA4948607E
:1006C00008460068DA490840D749086008460068CB
:1006D00020F4802008600846406820F4FE0048604E
:1006E0004FF41F0088607047CF49096821F48031BA
:1006F000CD4A11601146096821F480211160B0F5DE
:10070000803F03D0B0F5802F0ED106E0C6490968BE
:1007100041F48031C44A116007E0C349096841F4DB
:10072000A021C14A116000E000BF00BF704710B5B2
:1007300001460022002300204A11012A02D1BA4CAE
:10074000236806E0022A02D1B74C236A01E0B64CC6
:10075000636A01F01F02012494401C400CB1012087
:1007600000E0002010BD38B50020009000240025D6
:1007700000BF3120FFF7DBFF05460098401C0090CA
:100780000098B0F5A06F01D0002DF2D03120FFF716
:10079000CEFF08B1012400E00024204638BD014608
:1007A0000020A14A106820F0F80040EAC100106063
:1007B0007047A04908607047024600209A4B58686D
:1007C00020F47C1042EA01031843974B58607047AD
:1007D00098490866704701460020934A506820F007
:1007E00003000843506070478F48406800F00C00D9
:1007F0007047014600208C4A506820F0F000084302
:100800005060704701460020874A506820F4E0603D
:1008100008435060704701460020834A506820F426
:10082000605040EAC1005060704729B17E4A527A58
:1008300002437D4B5A7204E07B4A527A82437A4BE0
:100840005A7270477B49D8310860704701460020D2
:10085000754A506820F440400843506070470021BA
:10086000714A20321170704A82F82010012802D09B
:1008700004280AD104E001216B4A2032117005E0FE
:100880000521694A2032117000E000BF00BF7047A7
:100890006949086070476449096A0143624A116204
:1008A0007047654944390860704730B5002100221F
:1008B000002400235C4D6D6805F00C0121B1042972
:1008C00005D0082923D105E05C4D056022E05B4D91
:1008D00005601FE0544D6D6805F47012524D6D684F
:1008E00005F48034022505EB92421CB9544D554362
:1008F00005600BE04C4D6D6805F400351DB1504DA1
:100900005543056002E04D4D5543056002E04B4DF7
:10091000056000BF00BF444D6D6805F0F001090996
:10092000484D6B5C0568DD4045603F4D6D6805F4E2
:10093000E061090A434D6B5C4568DD4085603A4DD6
:100940006D6805F46051C90A3E4D6B5C4568DD4039
:10095000C560354D6D6805F44041890B3A4D6B5CBF
:10096000C568B5FBF3F5056130BD29B12E4A526962
:1009700002432D4B5A6104E02B4A526982432A4BB1
:100980005A61704729B1284A92690243264B9A61FD
:1009900004E0254A92698243234B9A61704729B14A
:1009A000214AD2690243204BDA6104E01E4AD2692F
:1009B00082431D4BDA61704729B11B4AD26802435A
:1009C000194BDA6004E0184AD2688243164BDA60A9
:1009D000704729B1144A12690243134B1A6104E0AB
:1009E000114A12698243104B1A617047124940390B
:1009F000086070470F49C86470470B49C871704759
:100A00000948406A40F080700749486270470146D3
:100A10000020054A92680A400AB1012000E0002047
:100A20007047014988727047001002400000FFF8CB
:100A3000FFFFF6FE000042428004424200127A00AC
:100A400000093D00140000202400002010B50446D9
:100A5000BE48844208D101218014FFF7ADFF002178
:100A6000A014FFF7A9FF16E0B948844208D101217C
:100A70000014FFF7AEFF00212014FFF7AAFF0AE0E1
:100A8000B448844207D10121C013FFF7A2FF00211F
:100A9000E013FFF79EFF10BD10B50022028802F49C
:100AA00041520B884C8823438C882343CC882343B2
:100AB0000C8923434C8923438C892343CC892343CA
:100AC0001A430280838B4FF2FF74234083830B8A87
:100AD000038210BD2DE9F04F85B005460C464FF05E
:100AE000000902274FF000084FF0010B0026B24624
:100AF000A88B4FF240010840A88302202884B5F853
:100B00001C90A068022801D100BF38E0A08810B96D
:100B10004FF0010B01E04FF0020B8D48854200D1F0
:100B200000E000BF6846FFF7C0FEDDF800A0E088E7
:100B3000B0F5007F0AD14FEA1A2000EB8000400098
:100B4000A168B0FBF1F0401D86B20BE04FEA4B10FC
:100B5000BAFBF0F000EB80004000A168B0FBF1F0C0
:100B6000401D86B20A20B6FBF0F606F00108A6EB9F
:100B70000800C0F34F074FF6FF7000EA0828022F65
:100B800001DBFF2F02DD02274FF00008E08840EA7A
:100B9000080038432884A088A18908436188084355
:100BA0002188084340F4006040EA0909A5F81C9038
:100BB00005B0BDE8F08F0021018041808180C180B7
:100BC000018141818181C18107210182704700211A
:100BD000018041808180C18002218160002181816A
:100BE000704721B1028842F04002028004E002888E
:100BF0004FF6BF731A400280704721B1828B42F4D6
:100C00008062828304E0828B4FF6FF331A40828336
:100C1000704730B5002400230C110125A540ABB26C
:100C20001AB185881D43858002E085889D438580B3
:100C300030BD1AB183880B43838002E083888B43E5
:100C400083807047818170470146888970474FF6DD
:100C5000FF62914204D0028842F48072028004E074
:100C600002884FF6FF631A400280704721B18288E4
:100C700042F00402828004E082884FF6FB731A403F
:100C80008280704702884FF2FF731A400280028808
:100C90000A4302807047018841F480510180704707
:100CA00021B1028842F40052028004E002884DF62D
:100CB000FF731A400280704702460020012901D0CC
:100CC000108B00E0908A70470146088A7047B1F5A2
:100CD000804F04D1028842F48042028004E00288FE
:100CE0004BF6FF731A4002807047024600201389BA
:100CF0000B400BB1012000E000207047CA43028185
:100D00007047F0B50246002000240023002501F0C2
:100D10000F070126BE40B4B20B1101269E40B3B2AC
:100D2000968806EA03051689264016B10DB1012002
:100D300000E00020F0BD10B5002201F00F040123F7
:100D4000A3409AB2D343038110BD0000003001409C
:100D500000380040003C004010B50446FB48844287
:100D600009D101218803FFF727FE00214FF48040BD
:100D7000FFF722FE32E0F648844209D101214804FF
:100D8000FFF727FE00214FF40030FFF722FE25E099
:100D9000F048844209D101218804FFF71AFE00219E
:100DA0004FF48020FFF715FE18E0EB48844209D18C
:100DB0000121C804FFF70DFE00214FF40020FFF7CA
:100DC00008FE0BE0E548844208D101210805FFF741
:100DD00000FE00214FF48010FFF7FBFD10BD2DE950
:100DE000F04786B005460E460024A24600BFA14645
:100DF0000027B08900B100BF2F462C8A4CF6FF7047
:100E00000440F08804432C82AC894EF6F310044071
:100E1000B08831890843718908430443AC81AC8AA6
:100E20004FF6FF400440B0890443AC8201A8FFF7AD
:100E30003CFDC648874202D1DDF810A001E0DDF894
:100E40000CA0A88900F4004040B10AEBCA0000EBF6
:100E50000A1031684900B0FBF1F807E00AEBCA005C
:100E600000EB0A1031688900B0FBF1F86420B8FB90
:100E7000F0F004012009642101FB1089A88900F425
:100E8000004040B1322000EBC900B0FBF1F000F0AF
:100E90000700044308E0322000EB09106421B0FB96
:100EA000F1F000F00F0004432C8106B0BDE8F0879C
:100EB0004FF41651016000218180C18001810C2115
:100EC000418100218181704710B502460020108ABF
:100ED0004FF2FF0318400B884C8823438C88234330
:100EE000CC8823431843108210BD0021018041802B
:100EF0008180C180704721B1828942F40052828191
:100F000004E082894DF6FF731A4082817047F0B584
:100F10000346002400260025002040F66A17B94247
:100F200000D100BF1846C1F3421401F01F0601278B
:100F300007FA06F5012C01D10C3004E0022C01D196
:100F4000103000E014301AB107682F43076002E048
:100F50000768AF430760F0BD1AB1838A0B438382F1
:100F600002E0838A8B4383827047028A4FF6F073D4
:100F70001A400282028A0A430282704782894FF233
:100F8000FF731A40828182890A438281704721B1AE
:100F9000828942F00202828104E082894FF6FD7369
:100FA0001A4082817047028A4FF6DF731A4002822C
:100FB000028A0A430282704721B1028A42F48042C7
:100FC000028204E0028A4BF6FF731A4002827047E5
:100FD000C1F308028280704701468888C0F3080088
:100FE0007047818941F0010181817047028BD2B243
:100FF0000283028B42EA012202837047028B02F4D1
:101000007F420283028B0A430283704721B1828AA6
:1010100042F02002828204E0828A4FF6DF731A4097
:101020008282704721B1828A42F01002828204E0FB
:10103000828A4FF6EF731A408282704721B1828A0A
:1010400042F00802828204E0828A4FF6F7731A4067
:101050008282704721B1828942F40042828103E09A
:101060008289C2F30E028281704721B1828A42F4E2
:101070000062828204E0828A4FF2FF731A40828209
:101080007047828A4FF6FB731A408282828A0A4333
:101090008282704721B1828A42F00202828204E099
:1010A000828A4FF6FD731A40828270470246002002
:1010B000B1F5007F00D100BF13880B400BB10120B8
:1010C00000E00020704701F40072B2F5007F00D10B
:1010D00000BFCA430280704770B502460024002357
:1010E0000025002040F66A16B14200D100BFC1F3CE
:1010F000421501F01F03012606FA03F3012D02D168
:101100009689334006E0022D02D1168A334001E071
:10111000968A33400C12012606FA04F416883440ED
:1011200013B10CB1012000E0002070BD10B5002209
:10113000002340F66A14A14200D100BF0A12012424
:101140009440A3B2DC43048010BD0000003801408D
:101150000044004000480040004C00400050004067
:1011600001B502E00098401E009000980028F9D1D7
:1011700008BD98B00020169030210AA800F005FDA7
:10118000684903C9CDE908011C2101A800F0FDFC54
:1011900000F006FA2020644908600120086002205F
:1011A000091D086000F09EF960A000F0A5FF6948E5
:1011B00000F0A2FF00F024FA00F01BFC6649086072
:1011C000C820FFF7CDFF00F0EFFB644908606248DC
:1011D00002680846016862A000F08EFF5F48006860
:1011E0006D49884276D120204F4908600120091DB1
:1011F00008600220091F086068A000F07DFF01223E
:10120000002116A800F0AAFB9DF85800CD2827D190
:101210006AA000F071FF38224FF4807108A800F036
:101220009DFB1C224FF4007101A800F097FB68A001
:1012300000F062FF002410E008A800EBC400D0E931
:1012400000532A4668A000F057FF01A850F8241068
:101250006AA000F051FF601CC4B2072CECDB5DE01B
:101260006AA000F049FFCD201690002000F084FA1B
:101270000122002116A800F0E0FA002417E0204621
:1012800000F035FD0546714A714B00F089FC08AA53
:1012900002EBC40203C204EB4400C0EBC410012102
:1012A00001EB800001A941F82400601CC4B2072CA6
:1012B000E5DB38224FF4807108A800F0BEFA1C224A
:1012C0004FF4007101A800F0B8FA62A000F014FF1A
:1012D000002411E016E008A800EBC401D1E9005396
:1012E0002A4661A000F008FF01A850F8241062A06F
:1012F00000F002FF601CC4B2072CECDB62A000F01F
:10130000FBFE0BE020200849091D08600120091F91
:1013100008600220086066A000F0EEFE00F00EFCFF
:1013200000BFFEE7C8290008100C01400D0AD5E2F5
:10133000CAC7D2BBB8F6464C41534820B6C1D0B458
:10134000D0A1CAFDBACDB3A4D5FBCAFDCAB5D1E9B7
:10135000200D0A00D0290008280000202C000020C1
:101360000D0A466C61736849442069732030782502
:10137000582C20204D616E756661637475726572BC
:10138000204465766963652049442069732030787C
:1013900025580D0A000000001740EF000D0ABCECB4
:1013A000B2E2B5BD53504920464C41534820573214
:1013B0003551363420210D0A000000000D0ABCEC26
:1013C000B2E2B5BDCAFDBEDDB1EAD6BE0D0A00006F
:1013D0000D0AB4D3D0BEC6ACB6C1B5BDCAFDBEDD24
:1013E000A3BA0D0A00000000D0A1CAFD2072782027
:1013F0003D20254C46200D0A00000000D5FBCAFD0B
:10140000207278203D202564200D0A000D0AC3BB00
:10141000D3D0BCECB2E2B5BDCAFDBEDDB1EAD6BEEA
:10142000A3AC464C415348C3BBD3D0B4E6B4A2CA24
:10143000FDBEDDA3ACBCB4BDABBDF8D0D0D0A1CA5D
:10144000FDD0B4C8EBCAB5D1E90D0A009A999999B3
:101450009999B93FCFF2D0BEC6ACD0B4C8EBCAFDA3
:10146000BEDDA3BA00000000D0A1CAFD7478203D03
:1014700020254C460D0A0000D5FBCAFD7478203D9E
:101480002025640D0A0000000D0AC7EBB8B4CEBBDE
:10149000BFAAB7A2B0E5A3ACD2D4B6C1C8A1CAFD59
:1014A000BEDDBDF8D0D0BCECD1E90D0A00000000D3
:1014B0000D0ABBF1C8A1B2BBB5BD205732355136BC
:1014C00034204944210A0D00704700BFFEE700BFE9
:1014D000FEE700BFFEE700BFFEE7704770477047BA
:1014E0007047000000B585B001210420FFF74AFADB
:1014F00001218803FFF746FA4FF40070ADF81000A1
:1015000018208DF8130003208DF8120004A922483A
:10151000FEF77CFF4FF48060ADF8100004208DF8DA
:10152000130004A91C48FEF771FF4FF4E13000904E
:101530000020ADF80400ADF80600ADF80800ADF8E5
:101540000C000C20ADF80A0069461448FFF747FC70
:1015500001211248FFF7CFFC05B000BD70B504466D
:101560000D46E1B20D48FFF733FD00BF80210B4867
:10157000FFF79CFD0028F9D0204670BD10B5044649
:1015800000BF20210548FFF791FD0028F9D003484E
:10159000FFF722FD10BD00000008014000380140A7
:1015A00008B501210820FFF7EDF92020ADF8000073
:1015B00010208DF8030003208DF8020069460F48C3
:1015C000FEF724FF0120ADF8000069460B48FEF746
:1015D0001DFF0220ADF8000069460848FEF716FF1F
:1015E00020210648FEF7BFFF01210448FEF7BBFF9C
:1015F00002210248FEF7B7FF08BD0000000C0140C1
:1016000000B587B001210803FFF7BCF90121D42000
:10161000FFF7B8F90120ADF8040003208DF80600AB
:1016200010208DF8070001A9FE48FEF7EFFE2020EC
:10163000ADF8040018208DF8070001A9FA48FEF75C
:10164000E5FE4020ADF8040001A9F748FEF7DEFEF4
:101650008020ADF8040001A9F348FEF7D7FE012170
:10166000F048FEF780FF0020ADF808004FF48270CC
:10167000ADF80A000020ADF80C000220ADF80E0015
:101680000120ADF810004002ADF812000820ADF8BE
:1016900014000020ADF816000720ADF8180002A9CC
:1016A000E248FFF7F9F90121E048FFF79AFA07B09D
:1016B00000BD10B504462146DDA000F01DFD002050
:1016C00010BD10B504464FF48050E54908600AE0AB
:1016D000E3490868411EE24A116020B90020FFF783
:1016E000E8FFC0B210BD0221D048FFF7FEFA002883
:1016F000EED02146CD48FFF7A5FA4FF48050D849E7
:1017000008600AE0D6490868411ED54A116020B930
:101710000120FFF7CEFFC0B2E4E70121C348FFF785
:10172000E4FA0028EED0C148FFF78EFAC0B2D9E73C
:1017300010B500240121BB48FEF717FF0520FFF775
:10174000C0FF00BFFF20FFF7BCFF044604F001000C
:101750000028F7D10121B348FEF705FF10BD10B5F1
:101760000121B048FEF701FF0620FFF7AAFF012183
:10177000AC48FEF7F8FE10BD10B50446FFF7EFFFCA
:10178000FFF7D6FF0121A748FEF7EFFE2020FFF765
:1017900098FFC4F30740FFF794FFC4F30720FFF757
:1017A00090FFE0B2FFF78DFF01219E48FEF7DBFEC0
:1017B000FFF7BEFF10BD10B5FFF7D1FF012199481B
:1017C000FEF7D3FEC720FFF77CFF01219548FEF707
:1017D000CAFEFFF7ADFF10BD70B505460C461646B4
:1017E000FFF7BDFF01218F48FEF7BFFE0220FFF784
:1017F00068FFC4F30740FFF764FFC4F30720FFF757
:1018000060FFE0B2FFF75DFFB6F5807F04DD4FF4C7
:10181000807694A000F070FC03E02878FFF751FF79
:101820006D1C301EA6F101018EB2F6D101217D485A
:10183000FEF799FEFFF77CFF70BD2DE9F05F0746CC
:101840000E4614464FF00008C146C2460025AB467E
:1018500006F0FF0ACAF10000C5B22046E11704EB0A
:101860001161C1F30728E11704EB11610912A4EB20
:10187000012101F0FF09BAF1000F20D1B8F1000FEA
:1018800005D1224631463846FFF7A6FF64E009E05D
:101890004FF4807231463846FFF79EFF06F580769A
:1018A00007F58077B8F10000A8F1010101F0FF0809
:1018B000EED14A4631463846FFF78EFF4CE0B8F18C
:1018C000000F18D1A94510DDA9EB050000F0FF0BB2
:1018D0002A4631463846FFF77FFF2E442F445A46AA
:1018E00031463846FFF778FF36E022463146384623
:1018F000FFF772FF30E0601B84B22046E11704EB73
:101900001161C1F30728E11704EB11610912A4EB7F
:10191000012101F0FF092A4631463846FFF75CFFF6
:101920002E442F4409E04FF4807231463846FFF7C9
:1019300053FF06F5807607F58077B8F10000A8F12F
:10194000010101F0FF08EED1B9F1000F04D04A46C1
:1019500031463846FFF740FFBDE8F09F70B50546B9
:101960000C46164601212F48FEF7FFFD0320FFF726
:10197000A8FEC4F30740FFF7A4FEC4F30720FFF757
:10198000A0FEE0B2FFF79DFE04E0FF20FFF799FE06
:1019900028706D1C301EA6F101018EB2F5D1012117
:1019A0002048FEF7E0FD70BD2DE9F0410024002540
:1019B0000026002701211B48FEF7D7FD9F20FFF7D7
:1019C00080FEFF20FFF77DFE0546FF20FFF779FE32
:1019D0000646FF20FFF775FE074601211148FEF776
:1019E000C2FD280440EA062040EA07042046BDE87C
:1019F000F08110B5002401210A48FEF7B6FDAB20A6
:101A0000FFF75FFEFF20FFF75CFEFF20FFF759FEA8
:101A1000FF20FFF756FEFF20FFF753FE044601218B
:101A2000004839E00010014000080140003001404A
:101A30003C3C2D464C4153482D4552524F522D3E71
:101A40003E2053504920B5C8B4FDB3ACCAB121659E
:101A500072726F72436F6465203D2025640A000036
:101A6000300000203C3C2D464C4153482D455252FD
:101A70004F522D3E3E205350495F464C4153485FE4
:101A800050616765577269746520746F6F206C616F
:101A9000726765210A000000FEF765FD204610BD53
:101AA00010B5044601213248FEF75FFD0320FFF721
:101AB00008FEC4F30740FFF704FEC4F30720FFF756
:101AC00000FEE0B2FFF7FDFD10BD10B5FF20FFF7EF
:101AD000F8FD10BD10B504464FF48050254908604C
:101AE00009E024490868411E224A116018B9022001
:101AF000FFF7DFFD10BD02211F48FFF7F6F80028B1
:101B0000EFD021461C48FFF79DF84FF4805019494B
:101B1000086009E017490868411E164A116018B9A3
:101B20000320FFF7C6FDE5E701211348FFF7DDF8C5
:101B30000028EFD01048FFF787F8DBE710B5012148
:101B40000B48FEF712FDB920FFF7BBFD0121084845
:101B5000FEF709FD10BD10B501210548FEF705FD92
:101B6000AB20FFF7AEFD01210148FEF7FCFC10BDE4
:101B7000001001403000002000300140D2B201E0EE
:101B800000F8012B491EFBD270470022F6E710B582
:101B900013460A4604461946FFF7F0FF204610BDDB
:101BA0002DE9FE4F804681EA0300C00F0C460090ED
:101BB00021F0004123F00045B8EB0200A94105D215
:101BC0004046214690461C460B46024623F0004004
:101BD000104347D0270DC7F30A00C3F30A51029000
:101BE000401A019040286BDAC3F3130040F4801BC5
:101BF0000098924620B10023D2EB030A63EB0B0B53
:101C000001985946C0F14002504600F0C4F806461B
:101C10000D4650465946019A00F0CCF810EB0800EA
:101C20006141002487EA115284EAE7731A4340D0E5
:101C3000009A62B3019A012A4FEA075215DC001B91
:101C400061EB02014FF0004202EA0752CDE9004287
:101C5000001C41F5801132462B4600F0CCF803B051
:101C6000BDE8F08F40462146F9E7001B61EB020119
:101C7000001C41F5801300185B412018A2F50017E5
:101C800047EB030140EAD570B6196D4111E06D08CC
:101C90004FEA360645EAC0754FEA0752001B61EB72
:101CA0000201001C41F5801149084FEA300000197B
:101CB000514132462B4603B0BDE8F04F00F08CB8DE
:101CC0000098012240000023D0EB020263EBE07396
:101CD000009821464FEAE074B8EB000061EB040184
:101CE000E9E783F000435BE781F0004158E70EB578
:101CF00040F2334102910021CDE900110A460B4622
:101D000000F079F803B000BD30B50B460146002065
:101D10002022012409E021FA02F59D4205D303FAAD
:101D200002F5491B04FA02F52844151EA2F101022E
:101D3000F1DC30BD2DE9F05F0546002092469B4660
:101D400088460646814640241BE0284641464746D1
:101D5000224600F0C1F953465A46C01A914110D3A9
:101D600011461846224600F016F82D1A67EB0108B6
:101D70004F4622460120002100F00DF817EB000924
:101D80004E41201EA4F10104DFDC484631462A46BC
:101D90004346BDE8F09F202A04DB203A00FA02F116
:101DA000002070479140C2F1200320FA03F3194349
:101DB00090407047202A06DBCB17203A41FA02F008
:101DC00043EAE07306E041FA02F3D040C2F1200298
:101DD000914008431946704710B5141E73F1000472
:101DE00008DA401C41F1000192185B411A4301D10D
:101DF00020F0010010BD2DE9F04D92469B4611B137
:101E0000B1FA81F202E0B0FA80F220329046FFF798
:101E1000C2FF04460F4640EA0A0041EA0B0153465E
:101E20005A46084313D0114653EA010019D0C8F1AD
:101E30004002504600F050F905460E4650465946BD
:101E40004246FFF7A8FF084305D0012004E02046E2
:101E50003946BDE8F08D0020054346EAE0762C4384
:101E600037430A986305E40AA0EB08000022FD0A44
:101E700044EA47540A3002D500200146E9E701054B
:101E800010196941DDE9084500196941BDE8F04DC7
:101E9000A2E72DE9FE4F81EA030404F0004421F09B
:101EA000004100944FF0000B23F0004350EA01047E
:101EB0005ED052EA03045BD0C3F30A54C1F30A555F
:101EC0002C44A4F2F3340194A0FB0254C1F3130197
:101ED00041F48011C3F3130343F4801301FB024464
:101EE00000FB034E840A970A44EA815447EA835769
:101EF000A4FB076802958D0A05FB07854FEA932C22
:101F000004FB0C542705029D4FEA065847EA163792
:101F1000B5EB08056EEB070C870E920E47EA8117AA
:101F200042EA8312A7FB0201B6EB0B0164EB00044B
:101F30002B0D43EA0C335E1844EB1C50DA46514635
:101F4000E7FB0201C5F313044FEA0B3343EA1453D2
:101F50004FEA0432019C43EA0603A4F10C04029404
:101F6000009CCDE900B4FFF746FF03B0BDE8F08F59
:101F700000200146F9E72DE9F04D81EA030404F061
:101F8000004B21F0004514464FF0000A23F00041B9
:101F900050EA050220D054EA01021DD0C5F30A57C9
:101FA0000246C5F31303C1F31300C1F30A5640F40C
:101FB000801543F48013A7EB0608101BD64608F2E1
:101FC000FD3873EB050002D308F1010801E0921817
:101FD0005B41B8F1000F03DA00200146BDE8F08D47
:101FE00000204FF48011064684460EE0171B73EB69
:101FF000050705D3121B63EB050306434CEA010CEE
:1020000049084FEA300092185B4150EA0107EDD1D0
:1020100052EA030012D082EA040083EA0501084371
:1020200005D0101BAB4106D20122002306E000229E
:102030004FF0004302E06FF0010253101AEB06006C
:102040004CEB085110EB0A0041EB0B01BDE8F04DE1
:10205000FFF7C2BEC1F30A52C1F3130140F2FF33CE
:1020600041F480119A4202DA00200146704740F2A2
:1020700033439A42A2F2334202DC524200F02CB8BF
:10208000FFF789BE30B5041E71F1000404DB4FF088
:102090000044404264EB0101141E73F1000405DBAF
:1020A0001C464FF00043524263EB0403994208BFC1
:1020B000904230BD064C074D06E0E06840F0010359
:1020C00094E8070098471034AC42F6D3FEF734F892
:1020D000242A0008442A0008202A04DB203A21FA96
:1020E00002F00021704721FA02F3D040C2F1200231
:1020F00091400843194670470FB4054B10B503A92A
:10210000044A029800F0DAF810BC5DF814FB0000F5
:102110005D1500083400002002E008C8121F08C145
:10212000002AFAD170477047002001E001C1121F58
:10213000002AFBD1704700002DE9FF5F82B000212B
:10214000DDE90430020DDDF840B0034318D044F659
:102150001050A2F2FF3242431514119801281FD0EB
:10216000A5EB0B00401C5FEA000A4FF000064E4F43
:10217000DFF83891B046504615D5CAF1000413E097
:10218000119801244AA3012801D16FEA0B0102989A
:10219000119AC0E90031C0E9024206B0BDE8F09FE3
:1021A000CBF10000DFE704460021404A491842EB2A
:1021B0000450CDE9001012E0E00707D032463B465C
:1021C00040464946FFF765FE8046894632463B4613
:1021D00010461946FFF75DFE06460F466410002CB8
:1021E000EAD1DDE90401DDE90023BAF1000F06DAE6
:1021F000FFF74FFE42464B46FFF74BFE05E0FFF769
:10220000BAFE42464B46FFF7B6FE04460E46002293
:10221000284BFFF737FF03D84FF0FF30014607E0A8
:102220000022254B20463146FFF7BAFCFFF712FF8C
:10223000102409E0002C0ADB0A220023FFF77AFDB4
:10224000039B30321A55641E50EA0102F2D1641C1D
:10225000039AC4F111031444119A012A03D00122F4
:1022600008430DD10AE0084304D000204FF0110BC1
:10227000119072E7A3EB0B056D1E0DE05B4504DDCD
:102280004FF0000205F1010504E003DA4FF000020F
:10229000A5F10105002AECD002981199C0E902319C
:1022A000C0E9004579E70000000014400000F03F5D
:1022B000300000000000F0430000E03F2DE9FF4F38
:1022C00095B09A46884606460025EEE1252877D146
:1022D00000242746F94A0121039400E0044316F83C
:1022E000013F203B01FA03F01042F7D130782A2851
:1022F00011D06FF02F033078A0F13002092A16D8E0
:10230000039A44F0020402EB820203EB42021044FF
:10231000761C0390EFE758F8042B0392002A03DAA7
:10232000504244F40054039044F00204761C307888
:102330002E2816D116F8010F44F004042A280DD0D7
:102340006FF02F023078A0F13003092B09D807EB8A
:10235000870302EB4303C718761CF3E758F8047BA6
:10236000761C30786C280FD006DC4C2817D06828F3
:102370000DD06A2814D104E0742810D07A280FD127
:102380000DE044F400140AE044F4801401E044F445
:1023900040147278824202D104F58014761C761CB7
:1023A000307866280BD013DC582877D009DC002859
:1023B00075D04528F6D04628F4D047281AD193E1A5
:1023C00018E0632835D0642879D0652812D18BE1D4
:1023D000702873D008DC6728F1D069286FD06E2888
:1023E0000DD06F2806D1ACE073282CD0752874D09E
:1023F000782853D05246179990476D1C54E1C4F386
:102400000250022809D003280DD0D8F80010042863
:102410000DD00D6008F1040846E1D8F80010EA1765
:10242000C1E90052F6E7D8F800100D80F2E70D7010
:10243000F0E718F8041B8DF8001000208DF801005B
:10244000EB46012003E058F804BB4FF0FF30610772
:102450004FF0000102D40DE009F101018946B942B3
:102460000FDA8145F8DB1BF809100029F4D108E0E8
:1024700009F1010189468142FADB1BF809100029A4
:10248000F6D103985346A0EB090721463846179A20
:1024900000F080FA284400EB090507E044E008E179
:1024A0000DE01BF8010B524617999047B9F101094D
:1024B000F7D2534621463846179AF2E039E00A210E
:1024C000C4F302524FF0000B0091022A06D058F8D4
:1024D000040BC117032A09D00AE023E008F1070022
:1024E00020F00702F2E80201904605E000B2C117B1
:1024F000042A01D140B2C117002906DA0A46002198
:10250000404261EB02012D2202E0220504D52B227C
:102510008DF80420012203E0E20701D02022F7E732
:10252000914657E00A2100E010214FF0000B009186
:102530000BE010214FF0000B44F004040827009139
:1025400003E008204FF0000B0090C4F30252022A6F
:1025500005D058F8040B0021032A08D008E008F140
:10256000070020F00702F2E80201904603E080B283
:10257000042A00D1C0B24FF0000922072AD53278D0
:10258000702A07D0DDF800C08CF0100C5CEA0B0C50
:1025900005D00EE040228DF80420012208E050EA28
:1025A000010306D030238DF804308DF80520022277
:1025B0009146009B83F0080353EA0B030AD150EACB
:1025C000010201D1620705D530228DF804204FF0B9
:1025D00001097F1E3278582A04D039A20C920CAA25
:1025E00002920BE03BA2F9E75B46009AFFF7A2FBE1
:1025F0000C9B9B5C029A521E0292137050EA0102DD
:10260000F2D1029804A9081A00F1200B600702D544
:1026100024F4803400E001275F4502DDA7EB0B00C6
:1026200000E0002000EB0B01009003984944401AA1
:102630000390E00306D453462146179A039800F00E
:10264000A9F90544002706E001A85246C05D179984
:1026500090476D1C7F1C4F45F6DBE0030CD55346BD
:102660002146179A039800F095F9054404E03020BC
:102670005246179990476D1C0099481E00900029FA
:10268000F5DC08E00298029952460078491C029154
:10269000179990476D1CBBF10001ABF1010BF1DC08
:1026A0005BE100F065F90544761C307800287FF482
:1026B0000DAE19B02846BDE8F08F000009280100D2
:1026C00030313233343536373839616263646566A8
:1026D000000000003031323334353637383941426A
:1026E0004344454600000000600700D4062708F177
:1026F000070020F00700F0E80223804603F0004CBA
:102700005FEA0C0001D097A009E0200501D596A052
:1027100005E0E00701D095A001E0AFF24C00139076
:10272000307823F0004365280CD006DC452809D01A
:1027300046281DD047287FD13BE0662818D067285F
:102740007AD136E00021112F01DB112000E0781C46
:10275000CDE9000104A90CA8FFF7EEFCDDE90D01AD
:102760000C9A4FF0000B07F10109109200914EE016
:102770004FF000400097CDE9011004A90CA8FFF725
:10278000DBFCDDE90D020C9B0F994FF0000B91462D
:102790001093009211B9791C00EB0109B7EB090005
:1027A00003D4C0F1FF3B07F10109A9EB0700019039
:1027B00042E0012F00DA01270021112F01DD112055
:1027C00000E03846CDE9000104A90CA8FFF7B4FCED
:1027D000DDE90D010C9A00914FF0000BB946109203
:1027E00021070FD4009A4A4503DA914601E0A9F186
:1027F0000109B9F1010F05DD109AA9F10101515C40
:102800003029F4D0B84202DA10F1040F03DA0121C2
:10281000CDE9011010E0002803DC8344A9EB00019E
:1028200002E0411C494500DD8946A0EB0B00401C3D
:1028300001904FF000400290200705D401984845D0
:1028400002DB4FF0FF30019000208DF84B00029822
:102850000DF14B07B0F1004F25D002200C902B203A
:102860000D90029800280CDA404202902D200D9025
:1028700007E00A210298FFF747FA3031029007F883
:10288000011D0C99481E0C900029F2DC02980028CA
:10289000EFD1791E0D980870307800F0200040F0DC
:1028A000450007F8020D11A8C01BC01D0290139827
:1028B000007800B1012000EB0901019801EBE07103
:1028C000029801440398401A401E0390E00306D486
:1028D00053462146179A039800F05CF80544139874
:1028E000007818B15246179990476D1CE00323D524
:1028F00053462146179A039800F04CF805441BE014
:10290000BBF1000F07DB0098584504DD10981799BC
:1029100010F80B0001E017993020524690470198BB
:102920000BF1010B401E05F10105019004D12E2091
:102930005246179990476D1CB9F10001A9F10109A0
:10294000DEDC05E017F8010B5246179990476D1C25
:102950000299481E02900029F4DC53462146179A3A
:1029600003989EE62D0000002B00000020000000D0
:102970002DE9F041044600251E461746880404D47C
:1029800005E039462020B0476D1C641EF9D5284665
:10299000BDE8F0812DE9F041044600251E46904631
:1029A000C80301D5302700E02027880404D505E0BE
:1029B00041463846B0476D1C641EF9D52846BDE82F
:1029C000F081000000000000000000000000000096
:1029D0000D0A20CAB9D3C3D6B8C4CFD5DFB5D7B096
:1029E000E5CAB120D7F3C9CFBDC7C5C5D5EBCEBBAE
:1029F000D6C320B2BBD2AABDAB504330B8C7D3D0E8
:102A0000CCF8C3B120B7C0D6B9D3B0CFEC50433067
:102A1000D7F6535049464C415348C6ACD1A1BDC529
:102A2000200D0A00442A00080000002038000000A1
:102A3000182100087C2A000838000020000400004B
:102A40002821000800A24A04000000000000000045
:102A50000102030406070809000000000102030444
:102A6000010203040607080902040608000000002A
:0C2A70000000000000A0000000000000BA
:0400000508000131BD
:00000001FF
