:020000040800F2
:1000000028060020450100089D0C00084F03000849
:10001000990C00082F0200083B12000800000000A5
:10002000000000000000000000000000610E000859
:100030003302000800000000490D00084D0F0008C1
:100040005F0100085F0100085F0100085F01000810
:100050005F0100085F0100085F0100085F01000800
:100060005F0100085F0100085F0100085F010008F0
:100070005F0100085F0100085F0100085F010008E0
:100080005F0100085F0100085F0100085F010008D0
:100090005F0100085F0100085F0100085F010008C0
:1000A0005F0100085F0100085F0100085F010008B0
:1000B0005F0100085F0100085F0100085F010008A0
:1000C0005F0100085F0100085F0100085F01000890
:1000D0005F010008CD0F00085F0100085F01000804
:1000E0005F0100085F0100085F0100085F01000870
:1000F0005F0100085F0100085F0100085F01000860
:100100005F0100085F0100085F0100085F0100084F
:100110005F0100085F0100085F0100085F0100083F
:100120005F0100085F0100085F0100085F0100082F
:10013000DFF80CD000F04AF8004800470917000823
:10014000280600200648804706480047FEE7FEE7ED
:10015000FEE7FEE7FEE7FEE7FEE7FEE7FEE7FEE777
:10016000550F0008310100082DE9F05F0546002019
:1001700092469B4688460646814640241BE0284618
:1001800041464746224600F042F853465A46C01AB6
:10019000914110D311461846224600F029F82D1A35
:1001A00067EB01084F4622460120002100F020F8AD
:1001B00017EB00094E41201EA4F10104DFDC484684
:1001C00031462A464346BDE8F09F0000064C074DE5
:1001D00006E0E06840F0010394E807009847103417
:1001E000AC42F6D3FFF7A8FF5C1700087C170008A5
:1001F000202A04DB203A00FA02F1002070479140E7
:10020000C2F1200320FA03F3194390407047202ADB
:1002100004DB203A21FA02F00021704721FA02F3B0
:10022000D040C2F12002914008431946704700BFF8
:10023000FEE770472DE9F041024600250026002028
:1002400000230024002791F803C00CF00F0591F85B
:1002500003C00CF0100CBCF1000F03D091F802C0E9
:100260004CEA050591F800C0BCF1000F31D01468CC
:1002700000202BE04FF0010C0CFA00F3B1F800C0A5
:100280000CEA03069E4220D183004FF00F0C0CFABB
:1002900003F7BC4305FA03FC4CEA040491F803C0DD
:1002A000BCF1280F06D14FF0010C0CFA00FCC2F88B
:1002B00014C00AE091F803C0BCF1480F05D14FF01B
:1002C000010C0CFA00FCC2F810C0401C0828D1D365
:1002D0001460B1F800C0BCF1FF0F34DD5468002099
:1002E0002EE000F1080C4FF0010808FA0CF3B1F809
:1002F00000C00CEA03069E4221D183004FF00F0C90
:100300000CFA03F7BC4305FA03FC4CEA040491F829
:1003100003C0BCF1280F05D100F1080C08FA0CF855
:10032000C2F8148091F803C0BCF1480F07D100F166
:10033000080C4FF0010808FA0CF8C2F81080401CB5
:100340000828CED35460BDE8F0810161704700BF3A
:10035000FEE721B1028842F48062028004E0028854
:100360004FF6FF331A400280704770B502460024F2
:10037000002500230020958A138B1B0445EA030601
:1003800026F07F4404EA01068E4201D1012000E0FC
:10039000002070BD002221F07F42D343838270474A
:1003A00021B1028842F00102028004E002884FF687
:1003B000FE731A400280704710B500F049FA00F051
:1003C00013FBA0200149088010BD0000040000209C
:1003D00070B505460E4614464FF420406849086043
:1003E0000AE067490868411E654A116020B9092082
:1003F00000F036FBC0B270BD4FF40031614800F030
:100400005FFA0028EDD101215E4800F041FA4FF477
:1004100020405B4908600AE059490868411E584A73
:10042000116020B90A2000F01BFBC0B2E3E7564977
:100430005448FFF79AFF0028EED054480178002274
:10044000504800F002FB4FF420404D4908600AE09C
:100450004B490868411E4A4A116020B90B2000F040
:10046000FFFAC0B2C7E74A494648FFF77EFF0028B7
:10047000EED001214348FFF793FF3146414800F099
:10048000EDFA4FF420403E4908600AE03C49086814
:10049000411E3B4A116020B90C2000F0E1FAC0B2C5
:1004A000A9E73B49891C3748FFF75FFF0028EDD0DB
:1004B0000121344800F0ECF94FF420403049086045
:1004C0000AE02F490868411E2D4A116020B90D200D
:1004D00000F0C6FAC0B28EE72B492A48FFF745FF65
:1004E0000028EED0294801780122264800F0ADFA14
:1004F0004FF42040224908600AE021490868411E63
:100500001F4A116020B90E2000F0AAFAC0B272E7AB
:100510001D49491C1B48FFF728FF0028EDD027E0A4
:10052000012C07D100211748FFF713FF01211548BF
:1005300000F0BAF94FF42040114908600AE0104970
:100540000868411E0E4A116020B9032000F088FAA5
:10055000C0B250E70C493F310A48FFF706FF0028B8
:10056000EDD0084800F06DFA28706D1C601E84B252
:10057000002CD5D101210348FFF7EBFE01203AE71B
:100580000800002000540040010003000400002087
:10059000820007002DE9F04707460D4614464FF04C
:1005A0000008C146C24600262846E91705EB5171EE
:1005B000C910A5EBC10101F0FF0ACAF10800C6B2DB
:1005C0002046E11704EB5171C1F3C708E11704EBB2
:1005D0005171C910A4EBC10101F0FF09BAF1000F7C
:1005E00028D1B8F1000F07D14A462946384600F015
:1005F00067F800F003F960E00AE00822294638466F
:1006000000F05EF800F0FAF805F10800C5B208370E
:10061000B8F10000A8F1010101F0FF08EDD1B9F136
:10062000000F4AD04A462946384600F049F800F003
:10063000E5F842E0B8F1000F07D14A4629463846AE
:1006400000F03EF800F0DAF837E0A01B84B2204654
:10065000E11704EB5171C1F3C708E11704EB5171C5
:10066000C910A4EBC10101F0FF094EB13246294681
:10067000384600F025F800F0C1F8A819C5B2374493
:100680000AE008222946384600F01AF800F0B6F8C9
:1006900005F10800C5B20837B8F10000A8F1010162
:1006A00001F0FF08EDD1B9F1000F06D04A46294606
:1006B000384600F005F800F0A1F8BDE8F08700002A
:1006C00070B504460E4615464FF420404649086072
:1006D0000AE045490868411E434A116020B90420D8
:1006E00000F0BEF9C0B270BD4FF400313F4800F0D9
:1006F000E7F80028EDD101213C4800F0C9F84FF49B
:100700002040394908600AE037490868411E364AE6
:10071000116020B9052000F0A3F9C0B2E3E7344925
:100720003248FFF722FE0028EED03248017800223E
:100730002E4800F08AF94FF420402B4908600AE067
:1007400029490868411E284A116020B9062000F096
:1007500087F9C0B2C7E728492448FFF706FE0028FA
:10076000EED03146214800F079F94FF420401E497F
:1007700008600AE01C490868411E1B4A116020B944
:10078000072000F06DF9C0B2ADE71B49891C17487E
:10079000FFF7EBFD0028EDD01BE02178134800F0B7
:1007A0005DF9641C4FF420400F4908600AE00E49CF
:1007B0000868411E0C4A116020B9082000F050F969
:1007C000C0B290E70C49891C0848FFF7CEFD00280D
:1007D000EDD0281EA5F10101CDB2DED101210348E3
:1007E00000F062F801207EE708000020005400407D
:1007F00001000300040000208200070008B500206B
:10080000009000BF01210F4800F042F814210D486C
:1008100000F00CF900900C4801780022094800F023
:1008200014F91421074800F001F900F00200002833
:10083000E8D006490348FFF7ADFD0121014800F06B
:1008400033F808BD005400400400002000040010EC
:1008500008B50121082000F089FA0121480500F0BF
:1008600075FA1C208DF803004020ADF8000003202D
:100870008DF8020069460548FFF7DCFC8020ADF8E2
:10088000000069460148FFF7D5FC08BD000C014097
:1008900021B1028842F48072028004E002884FF69F
:1008A000FF631A400280704721B1028842F400724F
:1008B000028004E002884FF6FF531A40028070471E
:1008C0000CB50246002000230193009300920B0F09
:1008D000019321F07F41019B1BB1009B14330093D6
:1008E00003E0090C009B18330093009B1B680B402E
:1008F0000BB1012000E000200CBD00002DE9F04309
:1009000085B004460D460026B1460427DFF8CC80AA
:10091000A6884FF6C0700640684600F037FADDF84A
:1009200008802F48B8FBF0F01FFA80F946EA090664
:10093000A68020884FF6FE710840208000262949B5
:10094000286888420CD828684000B8FBF0F087B2CD
:10095000042F00DA04273E4309F10100208427E038
:10096000E8884BF6FF71884206D1286800EB40000A
:10097000B8FBF0F087B209E0286800EBC00101EB9A
:100980000010B8FBF0F087B247F48047C7F30B00C4
:1009900008B947F0010747F4004006434FF496704A
:1009A00009FB00F04FF47A7190FBF1F0401C2084B9
:1009B000A683208840F00100208026884FF6F5307D
:1009C0000640A8886989084306432680A8892989A2
:1009D0000843208105B0BDE8F083000000127A00D2
:1009E00040420F00A08601001FB50020ADF80400B2
:1009F0000A20ADF808004BF6FF70ADF80600094874
:100A000000904FF48060ADF80A000001ADF80C00D2
:100A100069460548FFF772FF01210348FFF7C0FC54
:100A20001FBD0000801A06000054004008B50246B1
:100A300000200090009200980844009000980088E0
:100A400008BD0146088AC0B2704712B141F00101E9
:100A500002E04FF6FE731940018270470182704731
:100A600010B50446214602A000F0EAFB002010BDAC
:100A70003C3C2D454550524F4D2D4552524F522D25
:100A80003E3E2049324320B5C8B4FDB3ACCAB121C3
:100A90006572726F72436F6465203D2025640A00A1
:100AA00010B52CA000F0CCFB002413E031490C550C
:100AB0000846015D30A000F0C3FBE11704EB1171A3
:100AC0000911A4EB01110F2902D12DA000F0B8FBF0
:100AD000601C84B2FF2CE9DD4FF4807200212548B0
:100AE000FFF758FD27A000F0ABFB2DA000F0A8FBFE
:100AF0004FF4807200213248FFF76AFC002421E0A5
:100B00002F48005D1B49095D884209D02C48015DD2
:100B10002CA000F095FB2DA000F092FB002010BD52
:100B20002748015D14A000F08BFBE11704EB117165
:100B30000911A4EB01110F2902D111A000F080FBD3
:100B4000601C84B2FF2CDBDD2FA000F079FB0120BC
:100B5000E5E700003C3C2D454550524F4D2D494E98
:100B6000464F2D3E3E20D0B4C8EBB5C4CAFDBEDD15
:100B70000A000000240000203078253032580000A0
:100B80000A0D00003C3C2D454550524F4D2D494E1D
:100B9000464F2D3E3E20D0B4BDE1CAF80A00000009
:100BA0003C3C2D454550524F4D2D494E464F2D3E14
:100BB0003E20B6C1B3F6B5C4CAFDBEDD0A000000D2
:100BC0002401002030782530327800003C3C2D454F
:100BD0004550524F4D2D4552524F522D3E3E20B45E
:100BE000EDCEF33A49324320454550524F4D20D087
:100BF000B4C8EBD3EBB6C1B3F6B5C4CAFDBEDDB223
:100C0000BBD2BBD6C20A00003C3C2D454550524FDA
:100C10004D2D494E464F2D3E3E20493243284154EA
:100C200032344330322920B6C1D0B4B2E2CAD4B390
:100C3000C9B9A60A0000000008B50121082000F08B
:100C400095F82020ADF8000010208DF80300032057
:100C50008DF8020069460F48FFF7ECFA0120ADF865
:100C6000000069460B48FFF7E5FA0220ADF80000E6
:100C700069460848FFF7DEFA20210648FFF765FBC2
:100C800001210448FFF761FB02210248FFF75DFBE9
:100C900008BD0000000C014000BFFEE7704708B52A
:100CA0004FF4A06000F046F825208DF800000120E8
:100CB0008DF801008DF802008DF80300684600F001
:100CC00001F808BD70B5002100230F22C47804B3D9
:100CD000154C246804F4E064C4F5E064210AC1F111
:100CE0000403CA40447804FA03F184781440214391
:100CF00009010E4C0678A155047804F01F05012463
:100D0000AC4005786D11AD0005F1E025C5F8004156
:100D100009E0047804F01F050124AC40044D067876
:100D2000761145F8264070BD0CED00E000E400E0CF
:100D300080E100E002490143024A1160704700006F
:100D40000000FA050CED00E07047000029B1064AEA
:100D5000D2690243044BDA6104E0034AD269824358
:100D6000014BDA61704700000010024029B1064AC9
:100D700092690243044B9A6104E0034A92698243F8
:100D8000014B9A61704700000010024030B500210D
:100D90000022002400232D4D6D6805F00C0121B1C7
:100DA000042905D0082923D105E0294D056022E05A
:100DB000274D05601FE0254D6D6805F47012234D29
:100DC0006D6805F48034022505EB92421CB9214D73
:100DD000554305600BE01D4D6D6805F400351DB1F0
:100DE0001C4D5543056002E0194D5543056002E076
:100DF000174D056000BF00BF144D6D6805F0F00190
:100E00000909154D6B5C0568DD4045600F4D6D6847
:100E100005F4E061090A104D6B5C4568DD408560B2
:100E20000A4D6D6805F46051C90A0B4D6B5C45684D
:100E3000DD40C560054D6D6805F44041890B074DE7
:100E40006B5CC568B5FBF3F5056130BD0010024071
:100E500000127A0000093D000C0000201C00002058
:100E6000704710B500F002F810BD00000CB500206E
:100E7000019000903348006840F4803031490860A8
:100E800000BF3048006800F4003000900198401C1A
:100E90000190009818B90198B0F5A06FF1D12948D8
:100EA000006800F4003010B10120009001E0002043
:100EB00000900098012843D12348006840F01000BA
:100EC000214908600846006820F0030008600846D1
:100ED000006840F0020008601A48406819494860FC
:100EE0000846406848600846406840F480604860B2
:100EF0000846406820F47C1048600846406840F48A
:100F0000E81048600846006840F08070086000BF44
:100F10000C48006800F000700028F9D009484068CB
:100F200020F00300074948600846406840F002008E
:100F3000486000BF0348406800F00C000828F9D161
:100F40000CBD0000001002400020024010B500F06F
:100F500031F810BD10B51348006840F00100114988
:100F6000086008464068104908400E494860084635
:100F700000680E4908400B4908600846006820F4E4
:100F8000802008600846406820F4FE0048604FF466
:100F90001F008860FFF765FF4FF00060044908609C
:100FA00010BD0000001002400000FFF8FFFFF6FE39
:100FB00008ED00E00448006820B103480068401EC6
:100FC00001490860704700000000002010B540F2A1
:100FD0002551064800F06DF838B1044800F024F9B6
:100FE000C4B22146014800F024F910BD0038014088
:100FF00021B1828942F40052828104E082894DF657
:10100000FF731A408281704700B585B0012104202A
:10101000FFF7ACFE01218803FFF7A8FE4FF4007034
:10102000ADF8100018208DF8130003208DF8120081
:1010300004A91748FFF7FEF84FF48060ADF81000E0
:1010400004208DF8130004A91148FFF7F3F84FF4BA
:10105000E13000900020ADF80400ADF80600ADF8D6
:101060000800ADF80C000C20ADF80A0069460948EC
:1010700000F06EF8FFF713FE012240F225510548FB
:1010800000F041F801210348FFF7B2FF05B000BDB1
:10109000000801400038014002460020B1F5007F01
:1010A00000D100BF13880B400BB1012000E00020ED
:1010B000704770B50246002400230025002040F64A
:1010C0006A16B14200D100BFC1F3421501F01F03FF
:1010D000012606FA03F3012D02D19689334006E07A
:1010E000022D02D1168A334001E0968A33400C1259
:1010F000012606FA04F41688344013B10CB101201D
:1011000000E0002070BDF0B5034600240026002555
:10111000002040F66A17B94200D100BF1846C1F35B
:10112000421401F01F06012707FA06F5012C01D130
:101130000C3004E0022C01D1103000E014301AB160
:1011400007682F43076002E00768AF430760F0BD00
:101150002DE9F04786B005460E460024A24600BFA2
:10116000A1460027B08900B100BF2F462C8A4CF65B
:10117000FF700440F08804432C82AC894EF6F310D3
:101180000440B08831890843718908430443AC8125
:10119000AC8A4FF6FF400440B0890443AC8201A8FA
:1011A000FFF7F4FD1F48874202D1DDF810A001E0EF
:1011B000DDF80CA0A88900F4004040B10AEBCA0099
:1011C00000EB0A1031684900B0FBF1F807E00AEBC8
:1011D000CA0000EB0A1031688900B0FBF1F8642006
:1011E000B8FBF0F004012009642101FB1089A889F3
:1011F00000F4004040B1322000EBC900B0FBF1F038
:1012000000F00700044308E0322000EB09106421DD
:10121000B0FBF1F000F00F0004432C8106B0BDE8F4
:10122000F08700000038014001468888C0F30800BC
:101230007047C1F308028280704700BFFEE70000DC
:101240000FB4054B10B503A9044A029800F018F832
:1012500010BC5DF814FB0000E5160008200000201B
:1012600002E008C8121F08C1002AFAD1704770476F
:10127000002001E001C1121F002AFBD170470000CD
:101280002DE9FF4F8DB00F460546002606E02528C4
:101290000BD0DDE90F1290476D1C761C28780028D2
:1012A000F5D111B03046BDE8F08F0024A246A1462A
:1012B0000122EC4900E0044315F8013F203B02FA0B
:1012C00003F00842F7D128782A2810D06FF02F02B7
:1012D0002878A0F13001092914D80AEB8A0102EB21
:1012E000410144F0020400EB010A6D1CF0E701CF5C
:1012F0005FEA000A03D544F40054CAF1000A44F03E
:1013000002046D1C28782E2817D115F8010F44F01F
:1013100004042A280ED06FF02F022878A0F13001A3
:1013200009290AD809EB890102EB410100EB010907
:101330006D1CF2E757F8049B6D1C28786C280FD0C1
:1013400006DC4C2817D068280DD06A2814D104E098
:10135000742810D07A280FD10DE044F400140AE06C
:1013600044F4801401E044F440146978814202D1CD
:1013700004F580146D1C6D1C2A786E2A1FD00CDCBD
:10138000632A31D004DC002A8BD0582A11D1A3E083
:10139000642A68D0692A0CD165E0732A2ED004DC57
:1013A0006F2A73D0702A04D19BE0752A6FD0782AF7
:1013B0006ED01046DDE90F129047761C50E1C4F361
:1013C0000250022806D0032809D0042801CF09D0F2
:1013D000066045E101CFF117C0E9006140E101CFAE
:1013E00006803DE106703BE117F8040B8DF8000024
:1013F00000208DF80100EB46012003E057F804BB04
:101400004FF0FF3061074FF0000102D40DE008F10A
:101410000101884649450FDA8045F8DB1BF80810C2
:101420000029F4D108E008F1010188468142FADB85
:101430001BF808100029F6D1DDE90F23AAEB0800FC
:101440008146214600F036F9304400EB080604E0FE
:10145000DDE90F121BF8010B9047B8F10108F7D234
:1014600021464846F7E00A21C4F302534FF0000B2F
:101470000891022B04D001CFC117032B09D00AE039
:10148000FF1D27F00707F7E8020108E032E01FE040
:1014900020E000B2C117042B01D140B2C117031ED6
:1014A00071F1000307DA4FF0000CD0EB0C006CEB8D
:1014B00001012D2302E0230504D52B238DF82430D0
:1014C000012303E0E30701D02023F7E7984658E023
:1014D0000A2110E010210EE010204FF0000B0890C0
:1014E0000CE010214FF0000B44F004044FF0080909
:1014F000089103E008214FF0000B0891C4F3025358
:10150000022B04D001CF0021032B06D006E0FF1DE3
:1015100027F00707F7E8020103E080B2042B00D1AF
:10152000C0B24FF0000823072BD5702A07D0DDF892
:1015300020C08CF0100C5CEA0B0C05D00EE04023B0
:101540008DF82430012308E050EA010306D030234F
:101550008DF824308DF8252002239846DDF820C030
:101560008CF0080C5CEA0B0C0BD150EA010301D1A2
:10157000630706D530238DF824304FF00108A9F118
:101580000109582A04D038A20B9208AA0A920BE04B
:101590003AA2F9E75B46089AFEF7E6FD0B9B9B5CD7
:1015A0000A9A521E0A92137050EA0102F2D10A9866
:1015B000ADEB000000F1200B600702D524F480346D
:1015C00001E04FF00109D94502DDA9EB0B0000E075
:1015D000002000EB0B0141440890AAEB010AE00354
:1015E00006D4DDE90F232146504600F063F8064497
:1015F0004FF0000908E009A911F80900DDE90F1210
:10160000904709F10109761CC145F4DBE0030CD5D4
:10161000DDE90F232146504600F04CF8064404E073
:10162000DDE90F1230209047761C0899481E08907B
:101630000029F5DC08E00A980A990078491C0A910B
:10164000DDE90F129047761CBBF10001ABF1010BF5
:10165000F1DC21465046DDE90F2300F019F806447D
:101660006D1C1BE609280100303132333435363722
:1016700038396162636465660000000030313233DE
:10168000343536373839414243444546000000007E
:101690002DE9F041044600251E461746880404D46F
:1016A00005E039462020B0476D1C641EF9D5284658
:1016B000BDE8F0812DE9F041044600251E46904624
:1016C000C80301D5302700E02027880404D505E0B1
:1016D00041463846B0476D1C641EF9D52846BDE822
:1016E000F081000070B504460D46E1B20548FFF7F1
:1016F000A0FD00BF80210348FFF7CEFC0028F9D0F1
:10170000204670BD00380140FFF796FAFFF77CFCD9
:10171000FEF752FE0DA0FFF793FDFFF7C1F9012878
:1017200008D120200C4908600120091F0860022010
:10173000086002E020200849086001200649091FCE
:1017400008600220091D086000BFFEE7335F3133E7
:101750005F6C69750D0A0000140C01407C170008CD
:10176000000000202400000060120008A0170008FC
:101770002400002004060000701200080000000091
:101780000000000000A000000000000001020304AF
:10179000010203040607080902040608000000000D
:0400000508000131BD
:00000001FF
