:020000040800F2
:100000002804002045010008E50400087B040008DE
:10001000E10400082F020008230B00080000000084
:100020000000000000000000000000004907000878
:1000300033020008000000009105000835080008A0
:100040005F0100085F0100085F0100085F01000810
:100050005F0100085F0100085F0100085F01000800
:100060005F0100085F0100085F0100085F010008F0
:100070005F0100085F0100085F0100085F010008E0
:100080005F0100085F0100085F0100085F010008D0
:100090005F0100085F0100085F0100085F010008C0
:1000A0005F0100085F0100085F0100085F010008B0
:1000B0005F0100085F0100085F0100085F010008A0
:1000C0005F0100085F0100085F0100085F01000890
:1000D0005F010008B50800085F0100085F01000823
:1000E0005F0100085F0100085F0100085F01000870
:1000F0005F0100085F0100085F0100085F01000860
:100100005F0100085F0100085F0100085F0100084F
:100110005F0100085F0100085F0100085F0100083F
:100120005F0100085F0100085F0100085F0100082F
:10013000DFF80CD000F04AF8004800474D0E0008E8
:10014000280400200648804706480047FEE7FEE7EF
:10015000FEE7FEE7FEE7FEE7FEE7FEE7FEE7FEE777
:100160003D080008310100082DE9F05F0546002038
:1001700092469B4688460646814640241BE0284618
:1001800041464746224600F042F853465A46C01AB6
:10019000914110D311461846224600F029F82D1A35
:1001A00067EB01084F4622460120002100F020F8AD
:1001B00017EB00094E41201EA4F10104DFDC484684
:1001C00031462A464346BDE8F09F0000064C074DE5
:1001D00006E0E06840F0010394E807009847103417
:1001E000AC42F6D3FFF7A8FFC40E0008E40E0008E7
:1001F000202A04DB203A00FA02F1002070479140E7
:10020000C2F1200320FA03F3194390407047202ADB
:1002100004DB203A21FA02F00021704721FA02F3B0
:10022000D040C2F12002914008431946704700BFF8
:10023000FEE7704700B587B00121080300F0AAF976
:100240000121142000F0A6F910208DF807000120EC
:10025000ADF8040003208DF8060001A9214800F044
:100260007FF818208DF807002020ADF8040001A9C0
:100270001D4800F075F84020ADF8040001A91A48A7
:1002800000F06EF88020ADF8040001A9164800F0D7
:1002900067F80120154908600020ADF808004FF408
:1002A0008270ADF80A000020ADF80C000220ADF815
:1002B0000E000120ADF810004002ADF81200082039
:1002C000ADF814000020ADF816000720ADF81800B6
:1002D00002A9074800F01AFA0121054800F0D4F9F4
:1002E00007B000BD0010014000080140800122421B
:1002F0000030014010B504464FF4805016490860A4
:1003000007E015490868411E134A116008B900202A
:1003100010BD0221114800F0EBF90128F1D121466E
:100320000E4800F0F1F94FF480500B49086007E0E7
:1003300009490868411E084A116008B90120E7E729
:100340000121064800F0D4F90128F1D1034800F05A
:10035000D8F9C0B2DCE700000800002000300140FE
:100360002DE9F0410246002500260020002300244C
:10037000002791F803C00CF00F0591F803C00CF0B2
:10038000100CBCF1000F03D091F802C04CEA050537
:1003900091F800C0BCF1000F31D0146800202BE0B0
:1003A0004FF0010C0CFA00F3B1F800C00CEA0306A0
:1003B0009E4220D183004FF00F0C0CFA03F7BC4390
:1003C00005FA03FC4CEA040491F803C0BCF1280FC1
:1003D00006D14FF0010C0CFA00FCC2F814C00AE080
:1003E00091F803C0BCF1480F05D14FF0010C0CFA95
:1003F00000FCC2F810C0401C0828D1D31460B1F82A
:1004000000C0BCF1FF0F34DD546800202EE000F185
:10041000080C4FF0010808FA0CF3B1F800C00CEA20
:1004200003069E4221D183004FF00F0C0CFA03F714
:10043000BC4305FA03FC4CEA040491F803C0BCF188
:10044000280F05D100F1080C08FA0CF8C2F8148046
:1004500091F803C0BCF1480F07D100F1080C4FF030
:10046000010808FA0CF8C2F81080401C0828CED306
:100470005460BDE8F0810161704700BFFEE70000F5
:1004800008B50121082000F085F82020ADF8000013
:1004900010208DF8030003208DF8020069460F48F4
:1004A000FFF75EFF0120ADF8000069460B48FFF73B
:1004B00057FF0220ADF8000069460848FFF750FFDB
:1004C00020210648FFF7D7FF01210448FFF7D3FF9B
:1004D00002210248FFF7CFFF08BD0000000C0140D9
:1004E00000BFFEE7704708B54FF4A06000F046F883
:1004F00025208DF8000001208DF801008DF8020004
:100500008DF80300684600F001F808BD70B50021C1
:1005100000230F22C47804B3154C246804F4E0646B
:10052000C4F5E064210AC1F10403CA40447804FA26
:1005300003F184781440214309010E4C0678A1553B
:10054000047804F01F050124AC4005786D11AD005E
:1005500005F1E025C5F8004109E0047804F01F0525
:100560000124AC40044D0678761145F8264070BD54
:100570000CED00E000E400E080E100E0024901430E
:10058000024A1160704700000000FA050CED00E01F
:100590007047000029B1064A92690243044B9A61F0
:1005A00004E0034A92698243014B9A61704700005C
:1005B0000010024030B500210022002400232D4D00
:1005C0006D6805F00C0121B1042905D0082923D15B
:1005D00005E0294D056022E0274D05601FE0254D0F
:1005E0006D6805F47012234D6D6805F480340225A2
:1005F00005EB92421CB9214D554305600BE01D4DA2
:100600006D6805F400351DB11C4D5543056002E0D1
:10061000194D5543056002E0174D056000BF00BF4E
:10062000144D6D6805F0F0010909154D6B5C056806
:10063000DD4045600F4D6D6805F4E061090A104D1D
:100640006B5C4568DD4085600A4D6D6805F460515E
:10065000C90A0B4D6B5C4568DD40C560054D6D6892
:1006600005F44041890B074D6B5CC568B5FBF3F59C
:10067000056130BD0010024000127A0000093D0003
:100680000C0000201C00002021B1028842F0400232
:10069000028004E002884FF6BF731A400280704760
:1006A0002DE9F041002400250026002700200E49F6
:1006B00008609F20FFF71EFEFF20FFF71BFE054688
:1006C000FF20FFF717FE0646FF20FFF713FE074641
:1006D00001200649C1F88001280440EA062040EACA
:1006E00007042046BDE8F08180012242000022423A
:1006F0000246002013890B400BB1012000E00020CE
:1007000070470146888970478181704710B5002283
:10071000028802F441520B884C8823438C8823437F
:10072000CC8823430C8923434C8923438C8923435E
:10073000CC8923431A430280838B4FF2FF742340FA
:1007400083830B8A038210BD704710B500F002F856
:1007500010BD00000CB500200190009033480068E7
:1007600040F480303149086000BF3048006800F430
:10077000003000900198401C0190009818B9019831
:10078000B0F5A06FF1D12948006800F4003010B135
:100790000120009001E0002000900098012843D142
:1007A0002348006840F010002149086008460068AE
:1007B00020F0030008600846006840F0020008606E
:1007C0001A48406819494860084640684860084629
:1007D000406840F4806048600846406820F47C101F
:1007E00048600846406840F4E810486008460068E1
:1007F00040F08070086000BF0C48006800F0007096
:100800000028F9D00948406820F0030007494860F3
:100810000846406840F00200486000BF0348406856
:1008200000F00C000828F9D10CBD000000100240B7
:100830000020024010B500F031F810BD10B513488B
:10084000006840F0010011490860084640681049FE
:1008500008400E494860084600680E4908400B49A8
:1008600008600846006820F4802008600846406858
:1008700020F4FE0048604FF41F008860FFF765FF1A
:100880004FF000600449086010BD000000100240F5
:100890000000FFF8FFFFF6FE08ED00E004480068E6
:1008A00020B103480068401E0149086070470000FD
:1008B0000400002010B540F22551064800F06DF804
:1008C00038B1044800F024F9C4B22146014800F0D0
:1008D00024F910BD0038014021B1828942F4005250
:1008E000828104E082894DF6FF731A40828170474D
:1008F00000B585B001210420FFF74CFE01218803DB
:10090000FFF748FE4FF40070ADF8100018208DF886
:10091000130003208DF8120004A91748FFF720FDEB
:100920004FF48060ADF8100004208DF8130004A986
:100930001148FFF715FD4FF4E13000900020ADF8AD
:100940000400ADF80600ADF80800ADF80C000C206E
:10095000ADF80A006946094800F06EF8FFF7C3FDDC
:10096000012240F22551054800F041F801210348D9
:10097000FFF7B2FF05B000BD00080140003801409C
:1009800002460020B1F5007F00D100BF13880B4064
:100990000BB1012000E00020704770B50246002432
:1009A00000230025002040F66A16B14200D100BFA6
:1009B000C1F3421501F01F03012606FA03F3012DCE
:1009C00002D19689334006E0022D02D1168A3340C7
:1009D00001E0968A33400C12012606FA04F41688C8
:1009E000344013B10CB1012000E0002070BDF0B51F
:1009F0000346002400260025002040F66A17B9426D
:100A000000D100BF1846C1F3421401F01F060127B0
:100A100007FA06F5012C01D10C3004E0022C01D1BB
:100A2000103000E014301AB107682F43076002E06D
:100A30000768AF430760F0BD2DE9F04786B0054673
:100A40000E460024A24600BFA1460027B08900B18F
:100A500000BF2F462C8A4CF6FF700440F0880443F8
:100A60002C82AC894EF6F3100440B08831890843DB
:100A7000718908430443AC81AC8A4FF6FF400440BF
:100A8000B0890443AC8201A8FFF794FD1F48874258
:100A900002D1DDF810A001E0DDF80CA0A88900F477
:100AA000004040B10AEBCA0000EB0A10316849006F
:100AB000B0FBF1F807E00AEBCA0000EB0A1031685E
:100AC0008900B0FBF1F86420B8FBF0F004012009C4
:100AD000642101FB1089A88900F4004040B1322054
:100AE00000EBC900B0FBF1F000F00700044308E0A0
:100AF000322000EB09106421B0FBF1F000F00F0090
:100B000004432C8106B0BDE8F087000000380140A6
:100B100001468888C0F308007047C1F3080282804C
:100B2000704700BFFEE700000FB4054B10B503A9E6
:100B3000044A029800F018F810BC5DF814FB00009D
:100B4000290E00082000002002E008C8121F08C17A
:100B5000002AFAD170477047002001E001C1121F3E
:100B6000002AFBD1704700002DE9FF4F8DB09B4656
:100B70000F460446002606E025280BD05A460F995A
:100B80009047641C761C20780028F5D111B03046BF
:100B9000BDE8F08F0025A8460122984900E00543F2
:100BA00014F8013F203B02FA03F00842F7D1207805
:100BB0002E2817D114F8010F45F004052A280ED06D
:100BC0006FF02F022078A0F1300109290AD808EB34
:100BD000880102EB410100EB0108641CF2E757F8C1
:100BE000048B641C20786C280DD004DC4C2812D0B7
:100BF0006A2811D104E074280DD07A280CD10AE0BB
:100C000045F4001507E0617845F48015814202D172
:100C1000641C05F58015641C2278692A45D008DC1F
:100C2000002AB3D0582A69D0632A10D0642A08D188
:100C30003BE0702A67D0732A13D0752A5CD0782ADB
:100C40005CD010465A460F999047761CD3E017F8AF
:100C5000040B8DF8000000208DF80100E94601200A
:100C600003E057F8049B4FF0FF3069074FF0000591
:100C700001D40AE06D1C45450DDA8542FADB19F80E
:100C800005100029F6D106E06D1C8542FCDB19F841
:100C900005100029F8D12E4404E019F8010B5A463A
:100CA0000F9990476D1EF8D2A5E00A200021CDE9EA
:100CB0000801C5F3025002280DD001CFC117031E51
:100CC00071F100030DDA4FF0000CD0EB0C006CEB6F
:100CD00001012D2308E0FF1D27F00707F7E80201B7
:100CE000EDE72B0504D52B238DF8283001233BE0BD
:100CF000EB0739D02023F7E70A2000E0102000217D
:100D0000CDE9080107E01020002145F00405CDE9F8
:100D100008014FF00808C5F3025002280FD001CF98
:100D200000214FF0000A2B071FD5702A0DD0DDE9F6
:100D300008C38CF0100C5CEA030C0CD015E0FF1D0E
:100D400027F00707F7E80201EBE740228DF828209B
:100D50004FF0010A0BE050EA010306D030238DF872
:100D600028308DF8292002239A46582A04D024A23C
:100D70000DF120090B9209E026A2F9E7DDE908232D
:100D8000FFF7F2F90B9B9B5C09F8013D50EA010269
:100D9000F4D1ADEB090020300890680701D44FF082
:100DA00001080899884502DDA8EB010000E0002059
:100DB0008046002506E00AA85A46405D0F999047F4
:100DC0006D1C761C5545F6DB04E030205A460F9921
:100DD0009047761CB8F10001A8F10108F5DC05E0A8
:100DE00019F8010B5A460F999047761C0899481E2E
:100DF00008900029F4DC641CC5E600000928010005
:100E00003031323334353637383961626364656680
:100E10000000000030313233343536373839414242
:100E2000434445460000000070B504460D46E1B25B
:100E30000548FFF772FE00BF80210348FFF7A0FDC1
:100E40000028F9D0204670BD00380140FFF718FB9C
:100E5000FFF74EFD0AA0FFF767FEFFF7EBF9FFF77C
:100E60001FFC10490860084601680FA0FFF75CFEF0
:100E70000C48016811A0FFF757FE00BFFEE7000015
:100E8000200D0A20384D2062797465D7D6BDDA204E
:100E9000B4AED0D0666C617368CAB5D1E9200D0AD2
:100EA0000000000000000020466C61736849442087
:100EB00069732030782558200D0A0000252358201A
:100EC0000D0A2000E40E00080000002024000000AD
:100ED000480B0008080F000824000020040400004C
:100EE000580B0008000000000000000000A00000F7
:100EF00000000000010203040102030406070809C0
:080F00000204060800000000D5
:0400000508000131BD
:00000001FF
