:020000040800F2
:1000000040040020450100089D070008490300083E
:10001000990700088D0100082B0F00080000000060
:10002000000000000000000000000000B70A000807
:100030009101000800000000490800083D0C00087C
:100040005F0100085F0100085F0100085F01000810
:100050005F0100085F0100085F0100085F01000800
:100060005F0100085F0100085F0100085F010008F0
:100070005F0100085F0100085F0100085F010008E0
:100080005F0100085F0100085F0100085F010008D0
:100090005F0100085F0100085F0100085F010008C0
:1000A0005F0100085F0100085F0100085F010008B0
:1000B0005F0100085F0100085F0100085F010008A0
:1000C0005F0100085F0100085F0100085F01000890
:1000D0005F010008BD0C00085F0100085F01000817
:1000E0005F0100085F0100085F0100085F01000870
:1000F0005F0100085F0100085F0100085F01000860
:100100005F0100085F0100085F0100085F0100084F
:100110005F0100085F0100085F0100085F0100083F
:100120005F0100085F0100085F0100085F0100082F
:10013000DFF80CD000F018F800480047A50F0008C1
:10014000400400200648804706480047FEE7FEE7D7
:10015000FEE7FEE7FEE7FEE7FEE7FEE7FEE7FEE777
:10016000450C000831010008064C074D06E0E06828
:1001700040F0010394E8070098471034AC42F6D3EE
:10018000FFF7DAFF481000086810000800BFFEE71C
:1001900070472DE9F04706460F4690460024454635
:1001A0000320A0EB48093CE07A1B91B2321990B2CF
:1001B00000F000F93A1B91B2721990B200F0FAF80F
:1001C0003A1991B2721990B200F0F4F87A1991B21A
:1001D000321990B200F0EEF87A1991B2321B90B257
:1001E00000F0E8F83A1991B2721B90B200F0E2F810
:1001F0007A1B91B2321B90B200F0DCF83A1B91B23C
:10020000721B90B200F0D6F8641CB9F1000F03DA4B
:10021000A000801D814404E0601B80000A308144FE
:100220006D1EAC42C0DDBDE8F0872DE9F04102460D
:1002300000250026002000230024002791F803C099
:100240000CF00F0591F803C00CF0100CBCF1000F7E
:1002500003D091F802C04CEA050591F800C0BCF14A
:10026000000F31D0146800202BE04FF0010C0CFA85
:1002700000F3B1F800C00CEA03069E4220D18300CF
:100280004FF00F0C0CFA03F7BC4305FA03FC4CEAE1
:10029000040491F803C0BCF1280F06D14FF0010C03
:1002A0000CFA00FCC2F814C00AE091F803C0BCF1DB
:1002B000480F05D14FF0010C0CFA00FCC2F810C039
:1002C000401C0828D1D31460B1F800C0BCF1FF0F66
:1002D00034DD546800202EE000F1080C4FF00108D6
:1002E00008FA0CF3B1F800C00CEA03069E4221D1D3
:1002F00083004FF00F0C0CFA03F7BC4305FA03FC24
:100300004CEA040491F803C0BCF1280F05D100F1B8
:10031000080C08FA0CF8C2F8148091F803C0BCF17C
:10032000480F07D100F1080C4FF0010808FA0CF84B
:10033000C2F81080401C0828CED35460BDE8F0817C
:10034000416170470161704700BFFEE708B50121B8
:10035000142000F07BFA04208DF8030042F2010023
:10036000ADF8000002208DF8020069460348FFF74F
:100370005CFF69460248FFF758FF08BD00080140CE
:100380000010014070B506460024094805884088E1
:1003900045430021084600F05BF900F0C5F900BFB5
:1003A00003E0304600F06EF9641CAC42F9D370BD36
:1003B0003400002070B504460D462946204600F062
:1003C00047F900F0B1F90248008800F05BF970BD10
:1003D000180000202DE9F05F05460E4617469846A6
:1003E000DDF828A04FF0000B781B401C1FFA80FBA3
:1003F000344613E02146284600F02AF900F094F92B
:100400004FF0000906E0504600F03CF909F1010008
:100410001FFA80F9D945F6DB601C84B24445E9DD5A
:10042000BDE8F09F10B5002085490860322000F03B
:10043000E1FB01208349C1F88401322000F0DAFB9E
:1004400001218148FFF77CFF142000F0D3FB01213C
:100450007D48FFF777FF142000F0CCFB80207B491C
:100460000880A02048802C2088712A20C8712B2069
:100470000872112000F03EF9782000F0BBFBB1209B
:1004800000F038F9052000F01BF93C2000F018F9C5
:100490003C2000F015F9B22000F02CF9052000F006
:1004A0000FF93C2000F00CF93C2000F009F9B320D2
:1004B00000F020F9052000F003F93C2000F000F9DD
:1004C0003C2000F0FDF8052000F0FAF83C2000F098
:1004D000F7F83C2000F0F4F8B42000F00BF903200A
:1004E00000F0EEF8C02000F005F9282000F0E8F850
:1004F000082000F0E5F8042000F0E2F8C12000F048
:10050000F9F8C02000F0DCF8C22000F0F3F80D206C
:1005100000F0D6F8002000F0D3F8C32000F0EAF88D
:100520008D2000F0CDF82A2000F0CAF8C42000F099
:10053000E1F88D2000F0C4F8EE2000F0C1F8C520ED
:1005400000F0D8F81A2000F0BBF8362000F0D2F8FE
:10055000C02000F0B5F8E02000F0CCF8042000F056
:10056000AFF8222000F0ACF8072000F0A9F80A202C
:1005700000F0A6F82E2000F0A3F8302000F0A0F83C
:10058000252000F09DF82A2000F09AF8282000F09D
:1005900097F8262000F094F82E2000F091F83A20E9
:1005A00000F08EF8002000F08BF8012000F088F8B1
:1005B000032000F085F8132000F082F8E12000F01D
:1005C00099F8042000F07CF8162000F079F8062055
:1005D00000F076F80D2000F073F82D2000F070F890
:1005E000262000F06DF8232000F06AF8272000F0A4
:1005F00067F8272000F064F8252000F061F82D202E
:1006000000F05EF83B2000F05BF8002000F058F8A6
:10061000012000F055F8042000F052F8132000F0FB
:100620004FF83A2000F066F8052000F049F829203C
:1006300000F060F84FF6FF70FFF7A4FE10BD000059
:100640008481214200802142000C014034000020BE
:1006500070B504460D460A49C87900F04BF82012DF
:1006600000F02EF8E0B200F02BF80549087A00F00F
:1006700041F8281200F024F8E8B200F021F870BD2B
:100680003400002010B5044610210A48FFF758FE38
:1006900010210948FFF756FE2112084800F0FAF928
:1006A000E1B2064800F0F6F910210248FFF74AFED1
:1006B00010BD000000080140001001400030014062
:1006C00010B5044610210848FFF73AFE10210748EC
:1006D000FFF738FE2146064800F0DCF910210248F9
:1006E000FFF730FE10BD000000080140001001407F
:1006F0000030014010B5044610210848FFF720FEE5
:1007000010210748FFF71CFEE1B2064800F0C2F9CD
:1007100010210248FFF716FE10BD0000000801403E
:10072000001001400030014010B502498879FFF700
:10073000E1FF10BD3400002008B50121082000F0C1
:1007400085F82020ADF8000010208DF8030003206C
:100750008DF8020069460F48FFF767FD0120ADF8EC
:10076000000069460B48FFF760FD0220ADF800006D
:1007700069460848FFF759FD20210648FFF7E2FDCA
:1007800001210448FFF7DEFD02210248FFF7DAFDF0
:1007900008BD0000000C014000BFFEE7704708B52F
:1007A0004FF4A06000F046F825208DF800000120ED
:1007B0008DF801008DF802008DF80300684600F006
:1007C00001F808BD70B5002100230F22C47804B3DE
:1007D000154C246804F4E064C4F5E064210AC1F116
:1007E0000403CA40447804FA03F184781440214396
:1007F00009010E4C0678A155047804F01F05012468
:10080000AC4005786D11AD0005F1E025C5F800415B
:1008100009E0047804F01F050124AC40044D06787B
:10082000761145F8264070BD0CED00E000E400E0D4
:1008300080E100E002490143024A11607047000074
:100840000000FA050CED00E07047000029B1064AEF
:1008500092690243044B9A6104E0034A926982431D
:10086000014B9A61704700000010024030B5002132
:100870000022002400232D4D6D6805F00C0121B1EC
:10088000042905D0082923D105E0294D056022E07F
:10089000274D05601FE0254D6D6805F47012234D4E
:1008A0006D6805F48034022505EB92421CB9214D98
:1008B000554305600BE01D4D6D6805F400351DB115
:1008C0001C4D5543056002E0194D5543056002E09B
:1008D000174D056000BF00BF144D6D6805F0F001B5
:1008E0000909154D6B5C0568DD4045600F4D6D686D
:1008F00005F4E061090A104D6B5C4568DD408560D8
:100900000A4D6D6805F46051C90A0B4D6B5C456872
:10091000DD40C560054D6D6805F44041890B074D0C
:100920006B5CC568B5FBF3F5056130BD0010024096
:1009300000127A0000093D001C0000202C0000205D
:1009400000B587B001210420FFF780FF01210803D3
:10095000FFF77CFF01210820FFF778FF012110201D
:10096000FFF774FFA020ADF8180018208DF81B00C9
:1009700003208DF81A0006A92D48FFF756FC102019
:10098000ADF8180003208DF81A0010208DF81B0018
:1009900006A92748FFF749FC10212548FFF7D0FC9E
:1009A0001020ADF8180003208DF81A0010208DF8E3
:1009B0001B0006A91F48FFF738FC10211D48FFF750
:1009C000BFFC0120ADF8180003208DF81A0010209C
:1009D0008DF81B0006A91848FFF727FC01211648CF
:1009E000FFF7AEFC0020ADF804004FF48270ADF8C4
:1009F00006000020ADF808000220ADF80A00012032
:100A0000ADF80C004002ADF80E000020ADF810006B
:100A1000ADF812000720ADF8140001A9074800F056
:100A20001BF80121054800F00BF807B000BD0000DD
:100A30000008014000100140000C0140003001405E
:100A400021B1028842F04002028004E002884FF6A1
:100A5000BF731A400280704710B50022028802F46A
:100A600041520B884C8823438C882343CC882343F2
:100A70000C8923434C8923438C892343CC8923430A
:100A80001A430280838B4FF2FF74234083830B8AC7
:100A9000038210BD024600BF108900F0020000284A
:100AA000FAD0918100BF108900F001000028FAD02F
:100AB0009089C0B27047704710B500F001F810BDC2
:100AC0000CB50020019000903348006840F480305D
:100AD0003149086000BF3048006800F400300090E1
:100AE0000198401C0190009818B90198B0F5A06FCA
:100AF000F1D12948006800F4003010B101200090C5
:100B000001E0002000900098012843D123480068AC
:100B100040F01000214908600846006820F00300FA
:100B200008600846006840F0020008601A48406803
:100B3000194948600846406848600846406840F4E3
:100B4000806048600846406820F47C104860084691
:100B5000406840F4E81048600846006840F0807043
:100B6000086000BF0C48006800F000700028F9D051
:100B70000948406820F0030007494860084640687B
:100B800040F00200486000BF0348406800F00C00DD
:100B90000828F9D10CBD00000010024000200240DE
:100BA00030B50146B1F1807F01D3012030BD21F085
:100BB0007F40401E4FF0E022506150170F22002866
:100BC00007DA13071D0E094B00F00F04241F1D55F3
:100BD00003E013071C0E064B1C5400BF00204FF00F
:100BE000E0229061072010610020DFE718ED00E0AF
:100BF00000E400E070B504460F4800684FF47A71D5
:100C0000B0FBF1F63046FFF7CBFF002508E000BF50
:100C10004FF0E020006900F480300028F8D06D1C0F
:100C2000A542F4D34FF0E020006920F001004FF01E
:100C3000E021086170BD00000000002010B500F048
:100C400031F810BD10B51348006840F0010011499B
:100C5000086008464068104908400E494860084648
:100C600000680E4908400B4908600846006820F4F7
:100C7000802008600846406820F4FE0048604FF479
:100C80001F008860FFF718FF4FF0006004490860FC
:100C900010BD0000001002400000FFF8FFFFF6FE4C
:100CA00008ED00E00448006820B103480068401ED9
:100CB00001490860704700001400002010B540F2A0
:100CC0002551064800F06DF838B1044800F024F9C9
:100CD000C4B22146014800F024F910BD003801409B
:100CE00021B1828942F40052828104E082894DF66A
:100CF000FF731A408281704700B585B0012104203E
:100D0000FFF7A4FD01218803FFF7A0FD4FF4007059
:100D1000ADF8100018208DF8130003208DF8120094
:100D200004A91748FFF781FA4FF48060ADF810006E
:100D300004208DF8130004A91148FFF776FA4FF448
:100D4000E13000900020ADF80400ADF80600ADF8E9
:100D50000800ADF80C000C20ADF80A0069460948FF
:100D600000F06EF8FFF71BFD012240F22551054807
:100D700000F041F801210348FFF7B2FF05B000BDC4
:100D8000000801400038014002460020B1F5007F14
:100D900000D100BF13880B400BB1012000E0002000
:100DA000704770B50246002400230025002040F65D
:100DB0006A16B14200D100BFC1F3421501F01F0312
:100DC000012606FA03F3012D02D19689334006E08D
:100DD000022D02D1168A334001E0968A33400C126C
:100DE000012606FA04F41688344013B10CB1012030
:100DF00000E0002070BDF0B5034600240026002569
:100E0000002040F66A17B94200D100BF1846C1F36E
:100E1000421401F01F06012707FA06F5012C01D143
:100E20000C3004E0022C01D1103000E014301AB173
:100E300007682F43076002E00768AF430760F0BD13
:100E40002DE9F04786B005460E460024A24600BFB5
:100E5000A1460027B08900B100BF2F462C8A4CF66E
:100E6000FF700440F08804432C82AC894EF6F310E6
:100E70000440B08831890843718908430443AC8138
:100E8000AC8A4FF6FF400440B0890443AC8201A80D
:100E9000FFF7ECFC1F48874202D1DDF810A001E00B
:100EA000DDF80CA0A88900F4004040B10AEBCA00AC
:100EB00000EB0A1031684900B0FBF1F807E00AEBDB
:100EC000CA0000EB0A1031688900B0FBF1F8642019
:100ED000B8FBF0F004012009642101FB1089A88906
:100EE00000F4004040B1322000EBC900B0FBF1F04B
:100EF00000F00700044308E0322000EB09106421F1
:100F0000B0FBF1F000F00F0004432C8106B0BDE807
:100F1000F08700000038014001468888C0F30800CF
:100F20007047C1F308028280704700BFFEE70000EF
:100F3000014A024900F013B8810F00083000002078
:100F400002E008C8121F08C1002AFAD17047704792
:100F5000002001E001C1121F002AFBD170472DE9DA
:100F6000F04116460F460446002503E03946B047D7
:100F7000641C6D1C20780028F8D12846BDE8F0815B
:100F800070B504460D46E1B20548FFF7CAFF00BF41
:100F900080210348FFF7F8FE0028F9D0204670BDF5
:100FA0000038014008B5FFF7C7FBFFF7A5FE1CA0FE
:100FB000FFF7BEFFFFF7CAF9FFF7C2FCFFF732FAEF
:100FC0001F2020490880142228211E20FFF7E1F865
:100FD00025E01F209F237F22002100900846FFF775
:100FE000F9F94FF4FA60FFF705FE4FF478409F23BC
:100FF0007F22002100900846FFF7ECF94FF4FA60D9
:10100000FFF7F8FD44F668009F237F22002100903F
:101010000846FFF7DFF940F2DC50FFF7EBFDD8E7B9
:10102000200D0A20384D2062797465D7D6BDDA20AC
:10103000B4AED0D0666C617368CAB5D1E9200D0A30
:1010400000000000180000206810000800000020C8
:1010500034000000400F00089C10000834000020FD
:101060000C040000500F000800A24A040000000019
:101070000000000001020304060708090000000048
:101080000000FFFF0000000001020304010203044E
:0C10900006070809020406080000000022
:0400000508000131BD
:00000001FF
