:020000040800F2
:10000000C008002045010008B9030008D502000817
:10001000B5030008B1010008030A00080000000051
:100020000000000000000000000000005D05000866
:10003000B501000800000000650400082D07000855
:100040005F0100085F0100085F0100085F01000810
:100050005F0100085F0100085F0100085F01000800
:100060005F0100085F0100085F0100085F010008F0
:100070005F0100085F0100085F0100085F010008E0
:100080005F0100085F0100085F0100085F010008D0
:100090005F0100085F0100085F0100085F010008C0
:1000A0005F0100085F0100085F0100085F010008B0
:1000B0005F0100085F0100085F0100085F010008A0
:1000C0005F0100085F0100085F0100085F01000890
:1000D0005F010008AD0700085F0100085F0100082C
:1000E0005F0100085F0100085F0100085F01000870
:1000F0005F0100085F0100085F0100085F01000860
:100100005F0100085F0100085F0100085F0100084F
:100110005F0100085F0100085F0100085F0100083F
:100120005F0100085F0100085F0100085F0100082F
:10013000DFF80CD000F02AF800480047D10B000887
:10014000C00800200648804706480047FEE7FEE753
:10015000FEE7FEE7FEE7FEE7FEE7FEE7FEE7FEE777
:100160003507000831010008D2B201E000F8012B88
:10017000491EFBD270470022F6E710B513460A4627
:1001800004461946FFF7F0FF204610BD064C074D08
:1001900006E0E06840F0010394E807009847103457
:1001A000AC42F6D3FFF7C8FFF05200081053000826
:1001B00000BFFEE770472DE9F0410246002500260A
:1001C000002000230024002791F803C00CF00F0545
:1001D00091F803C00CF0100CBCF1000F03D091F8A3
:1001E00002C04CEA050591F800C0BCF1000F31D007
:1001F000146800202BE04FF0010C0CFA00F3B1F86A
:1002000000C00CEA03069E4220D183004FF00F0C81
:100210000CFA03F7BC4305FA03FC4CEA040491F81A
:1002200003C0BCF1280F06D14FF0010C0CFA00FC02
:10023000C2F814C00AE091F803C0BCF1480F05D120
:100240004FF0010C0CFA00FCC2F810C0401C08284A
:10025000D1D31460B1F800C0BCF1FF0F34DD546895
:1002600000202EE000F1080C4FF0010808FA0CF312
:10027000B1F800C00CEA03069E4221D183004FF082
:100280000F0C0CFA03F7BC4305FA03FC4CEA040418
:1002900091F803C0BCF1280F05D100F1080C08FA51
:1002A0000CF8C2F8148091F803C0BCF1480F07D1D4
:1002B00000F1080C4FF0010808FA0CF8C2F81080A1
:1002C000401C0828CED35460BDE8F08141617047DE
:1002D0000161704700BFFEE708B50121082000F06A
:1002E000C3F80121042000F0BFF80121102000F024
:1002F000BBF80121402000F0B7F85C20ADF8000009
:1003000010208DF8030003208DF8020069460D4887
:10031000FFF751FF4FF4F070ADF8000069460A484E
:10032000FFF749FF4FF43C50ADF80000694607481D
:10033000FFF741FF2020ADF8000069460448FFF7B1
:100340003AFF08BD00080140000C014000100140C8
:100350000018014008B50121082000F085F8202090
:10036000ADF8000010208DF8030003208DF8020086
:1003700069460F48FFF71FFF0120ADF800006946EE
:100380000B48FFF718FF0220ADF800006946084847
:10039000FFF711FF20210648FFF79AFF01210448CB
:1003A000FFF796FF02210248FFF792FF08BD000009
:1003B000000C014000BFFEE7704708B54FF4A06095
:1003C00000F046F825208DF8000001208DF801008E
:1003D0008DF802008DF80300684600F001F808BDB2
:1003E00070B5002100230F22C47804B3154C246893
:1003F00004F4E064C4F5E064210AC1F10403CA40D6
:10040000447804FA03F184781440214309010E4C26
:100410000678A155047804F01F050124AC40057846
:100420006D11AD0005F1E025C5F8004109E0047843
:1004300004F01F050124AC40044D0678761145F800
:10044000264070BD0CED00E000E400E080E100E03B
:1004500002490143024A1160704700000000FA059A
:100460000CED00E07047000029B1064A9269024392
:10047000044B9A6104E0034A92698243014B9A61FA
:10048000704700000010024030B500210022002417
:1004900000232D4D6D6805F00C0121B1042905D014
:1004A000082923D105E0294D056022E0274D05608C
:1004B0001FE0254D6D6805F47012234D6D6805F43D
:1004C0008034022505EB92421CB9214D554305604D
:1004D0000BE01D4D6D6805F400351DB11C4D5543F5
:1004E000056002E0194D5543056002E0174D0560B7
:1004F00000BF00BF144D6D6805F0F0010909154DEE
:100500006B5C0568DD4045600F4D6D6805F4E0618A
:10051000090A104D6B5C4568DD4085600A4D6D68C9
:1005200005F46051C90A0B4D6B5C4568DD40C56040
:10053000054D6D6805F44041890B074D6B5CC5683E
:10054000B5FBF3F5056130BD0010024000127A00E2
:1005500000093D001800002028000020704710B559
:1005600000F002F810BD00000CB5002001900090D2
:100570003348006840F480303149086000BF30489B
:10058000006800F4003000900198401C0190009831
:1005900018B90198B0F5A06FF1D12948006800F4AE
:1005A000003010B10120009001E000200090009880
:1005B000012843D12348006840F010002149086019
:1005C0000846006820F0030008600846006840F014
:1005D000020008601A4840681949486008464068A7
:1005E00048600846406840F48060486008464068BB
:1005F00020F47C1048600846406840F4E8104860E9
:100600000846006840F08070086000BF0C48006831
:1006100000F000700028F9D00948406820F003007D
:10062000074948600846406840F00200486000BF43
:100630000348406800F00C000828F9D10CBD000008
:10064000001002400020024030B50146B1F1807F29
:1006500001D3012030BD21F07F40401E4FF0E02249
:10066000506150170F22002807DA13071D0E094B9F
:1006700000F00F04241F1D5503E013071C0E064B4A
:100680001C5400BF00204FF0E02290610720106151
:100690000020DFE718ED00E000E400E070B504465C
:1006A0000F4800684FF47A71B0FBF1F63046FFF75F
:1006B000CBFF002508E000BF4FF0E020006900F408
:1006C00080300028F8D06D1CA542F4D34FF0E02014
:1006D000006920F001004FF0E021086170BD0000CA
:1006E0000000002070B504460E4800680E49B0FBBB
:1006F000F1F63046FFF7A8FF002508E000BF4FF0F5
:10070000E020006900F480300028F8D06D1CA5427C
:10071000F4D34FF0E020006920F001004FF0E02119
:10072000086170BD0000002040420F0010B500F0CD
:1007300031F810BD10B51348006840F001001149B0
:10074000086008464068104908400E49486008465D
:1007500000680E4908400B4908600846006820F40C
:10076000802008600846406820F4FE0048604FF48E
:100770001F008860FFF7F3FE4FF000600449086037
:1007800010BD0000001002400000FFF8FFFFF6FE61
:1007900008ED00E00448006820B103480068401EEE
:1007A00001490860704700001400002010B540F2B5
:1007B0002551064800F060F838B1044800F018F9F7
:1007C000C4B22146014800F018F910BD00380140BC
:1007D00021B1828942F40052828104E082894DF67F
:1007E000FF731A408281704700B585B00121042053
:1007F000FFF73AFE01218803FFF736FE4FF4007041
:10080000ADF8100018208DF8130003208DF81200A9
:1008100004A91748FFF7CFFC4FF48060ADF8100033
:1008200004208DF8130004A91148FFF7C4FC4FF40D
:10083000E13000900020ADF80400ADF80600ADF8FE
:100840000800ADF80C000C20ADF80A006946094814
:1008500000F062F8FFF7B1FD012240F22551054892
:1008600000F034F801210348FFF7B2FF05B000BDE6
:10087000000801400038014070B502460024002302
:100880000025002040F66A16B14200D100BFC1F336
:10089000421501F01F03012606FA03F3012D02D1D0
:1008A0009689334006E0022D02D1168A334001E0DA
:1008B000968A33400C12012606FA04F41688344056
:1008C00013B10CB1012000E0002070BDF0B503466B
:1008D000002400260025002040F66A17B94200D106
:1008E00000BF1846C1F3421401F01F06012707FAA2
:1008F00006F5012C01D10C3004E0022C01D110309E
:1009000000E014301AB107682F43076002E007685F
:10091000AF430760F0BD00002DE9F04786B0054603
:100920000E460024A24600BFA1460027B08900B1B0
:1009300000BF2F462C8A4CF6FF700440F088044319
:100940002C82AC894EF6F3100440B08831890843FC
:10095000718908430443AC81AC8A4FF6FF400440E0
:10096000B0890443AC8201A8FFF78EFD1F4887427F
:1009700002D1DDF810A001E0DDF80CA0A88900F498
:10098000004040B10AEBCA0000EB0A103168490090
:10099000B0FBF1F807E00AEBCA0000EB0A1031687F
:1009A0008900B0FBF1F86420B8FBF0F004012009E5
:1009B000642101FB1089A88900F4004040B1322075
:1009C00000EBC900B0FBF1F000F00700044308E0C1
:1009D000322000EB09106421B0FBF1F000F00F00B1
:1009E00004432C8106B0BDE8F087000000380140C8
:1009F00001468888C0F308007047C1F3080282806E
:100A0000704700BFFEE702E008C8121F08C1002AB5
:100A1000FAD170477047002001E001C1121F002A7F
:100A2000FBD170472DE9F04105460E4614461F469E
:100A30003046452E63D012DC412871D008DC2828CE
:100A400019D0292818D02A281AD0402869D194E032
:100A5000422878D043286BD04428F7D15AE0463852
:100A60000E285ED2DFE800F03E3326101B9AA5A5C3
:100A7000A5A5A5A5A5969FE02046FFF70FFE9BE044
:100A80002046FFF72FFE97E024B120214C48FFF7C6
:100A90001FFC03E020214A48FFF718FC8CE024B13A
:100AA00008214848FFF714FC03E008214548FFF7F8
:100AB0000DFC81E02CB14FF400714348FFF708FCB6
:100AC00004E04FF400714048FFF700FC74E024B1EB
:100AD00040213B48FFF7FCFB03E040213848FFF78B
:100AE000F5FB69E02CB14FF400513748FFF7F0FBFC
:100AF00004E04FF400513448FFF7E8FB5CE024B118
:100B000020213248FFF7E4FB03E020212F48FFF7C4
:100B1000DDFB51E03CB140212A48FFF7D9FB06E05C
:100B20001EE046E00FE040212648FFF7CFFB43E000
:100B300024B110212348FFF7CBFB03E0102121480B
:100B4000FFF7C4FB38E02CB14FF480711C48FFF76D
:100B5000BFFB04E04FF480711948FFF7B7FB2BE0AF
:100B60002CB14FF400611848FFF7B2FB04E04FF4DA
:100B700000611548FFF7AAFB1EE02CB14FF480611D
:100B80001148FFF7A5FB04E04FF480610E48FFF722
:100B90009DFB11E0002085F827000DE024B1042121
:100BA0000848FFF795FB03E004210648FFF78EFB9A
:100BB00002E00020BDE8F08100BF0120FAE700005C
:100BC000000C0140000801400010014000180140E5
:100BD000FFF7C0FBFFF708FEFFF77EFB4FF4A060B6
:100BE000FFF736FC024800F069FD00BFFEE7000099
:100BF0002C00002070B504462068057C94F838006D
:100C00004543ED002946606BFFF7B5FA70BD2DE94D
:100C1000F04104460D4616461F467020005D30B177
:100C200001280AD002280ED0032818D111E020464E
:100C3000E16D8847304486B211E02046E16D884777
:100C4000281A85B20BE02046E16D8847301A86B23B
:100C500005E02046E16D8847284485B200BF00BF0B
:100C60003B4632462946204600F091FCBDE8F08123
:100C70007FB582B004460A9D94F88C00002863D0AA
:100C8000BDF8140000285FD0BDF8140001281CDD59
:100C9000022D0CD1BDF80C00BDF81410401A80B222
:100CA0000390BDF80C00401C80B203900DE0032DB2
:100CB0000BD1BDF81000BDF81410401A80B204909A
:100CC000BDF81000401C80B2049005F00105C5B9C4
:100CD000B4F84C00BDF81010884201DD06B070BDBC
:100CE000B4F84E00BDF81010884200DCF6E7B4F806
:100CF0004A30B4F8482005A903A800F0B2F9C0B9F9
:100D0000ECE7B4F84800BDF80C10884200DDE5E7D8
:100D1000B4F84A00BDF80C10884200DCDEE7B4F8F5
:100D20004E30B4F84C2005A904A800F09AF900B997
:100D3000D4E70095206BBDF81430BDF81020BDF845
:100D40000C1086682046B04700BFC7E72DE9F04188
:100D500004460D4616461F46044860603B46324630
:100D60002946204600F07CFABDE8F081F31B00081C
:100D700010B5044694F8930010B12046FFF73AFFEF
:100D80000021204600F03EF810BD2DE9F041044658
:100D90000D4616461F46DDF81880B4F84E10B4F81C
:100DA0004C004346324600F0BFFC10B90020BDE8BD
:100DB000F081B4F84A10B4F848003B462A4600F0E7
:100DC000B3FCF4E770B50446204600F0B5FD94F896
:100DD000395094F838002844C5B22068407CA842B5
:100DE00004DC204600F0B4FE002070BD94F89300AF
:100DF00010B12046FFF7FEFE2946204600F002F81B
:100E00000120F2E770B504460D4684F83950206B96
:100E1000016820468847206B41682046884770BD9E
:100E200070B504460D46A06DA84208D0A5652946B8
:100E300004F1740000F010FD204600F067F870BD6A
:100E40000149C16570470000F112000810B5044661
:100E5000002030342084A0844FF6FF706084E0844A
:100E600054F8300941682046884710BD2DE9F0410B
:100E700004460D4616461F46DDF818800020A06582
:100E8000E762656384F8386084F8390000216D20DA
:100E9000015500207434607760760120A077E077F8
:100EA00044F8448C54F8440C743C0168204688474C
:100EB0002046FFF7CBFF2046FFF7C2FF002170203E
:100EC0000155BDE8F08100002DE9FC4107460C46C4
:100ED00015461E462B460A4A0A493846009600F037
:100EE00054FE01A800F0B0FC8046074B00949DF82A
:100EF000042041463846FFF7B9FFBDE8FC810000F9
:100F00003B1D0008C51F000859170008816D01B975
:100F100070478121095C80F88E108221095C80F87D
:100F20008F1090F88D1099B390F88D10012914D17D
:100F300090F98E2090F983108A4203DA8321095CAC
:100F400080F88E1090F98F2090F984108A421FDD6E
:100F50008421095C80F88F101AE090F97E2090F9C6
:100F60008010114490F98E20914207DD7E210A5CA9
:100F70008021095C114449B280F88E1090F98F20CD
:100F800090F980108A4203DD8021095C80F88F107F
:100F900000BFBDE710B523B1012B05D0022B09D14D
:100FA00005E04418A0B208E0841AA0B205E0441A93
:100FB000A0B202E08418A0B200BF00BF10BD10B5FF
:100FC00023B1012B05D0022B09D105E08418A0B272
:100FD00008E04418A0B205E0841AA0B202E0441A66
:100FE000A0B200BF00BF10BD38B504465034E08841
:100FF00000906388A28834F850192046FFF7C5FE98
:1010000018B9002084F88C002AE0012084F88C00B4
:10101000B4F84800B4F85010884203DAB4F850002D
:10102000A4F84800B4F84A00B4F85210884203DD2E
:10103000B4F85200A4F84A00B4F84C00B4F85410C4
:10104000884203DAB4F85400A4F84C00B4F84E0017
:10105000B4F85610884203DDB4F85600A4F84E00E8
:1010600038BD70B505460E46144629880A463088B4
:10107000104482B2914206DD994203DA1A46501EAC
:1010800082B200E02146994201DB002070BDA242FD
:1010900001DC0020FAE7A14200DA21469A4200DD95
:1010A0001A462980501A82B232800120EEE72DE9DB
:1010B000F84304460E4615461F46DDF82080E08FB3
:1010C000281A85B2CDF800803B462A463146204694
:1010D000D4F82CC0E047BDE8F8832DE9F843054675
:1010E0000E4691461F46DDF82080B5F84440A01B0F
:1010F00084B208F0010010B9E01B84B201E0601E68
:1011000084B23B464A4621462846CDF80080FFF788
:10111000CEFFBDE8F8832DE9F84304460D46164698
:101120001F46DDF820803B46324629462046CDF852
:101130000080FFF7BCFFBDE8F8832DE9F84F0646B5
:101140000F46904699460A9DBA46B6F84640A4EB2B
:10115000080084B2601E84B2681CC5B2022D05D19D
:10116000A4EB090084B2601C84B200254B465246B1
:10117000214630460095FFF79AFFBDE8F88F2DE92C
:10118000F84F0646894692461F46DDF82880B6F895
:101190004650A5EB0A0085B2B6F84440A4EB09001E
:1011A00084B2B8F1000F04D1681E85B2E01B84B28E
:1011B00006E0B8F1010F03D1601E84B2E81B85B2CE
:1011C0003B462A4621463046CDF80080FFF76FFFA8
:1011D000BDE8F88F2DE9F84F05460E4617469846AC
:1011E000DDF82890BA46B5F84440A01B84B2B9F1A6
:1011F000000F09D1601E84B2A4EB080084B2601C09
:1012000084B24FF0010903E0601E84B24FF0000980
:101210004346224651462846CDF80090FFF747FF47
:10122000BDE8F88F2DE9F8430546894616461F4666
:10123000DDF82080B5F84640A01B84B208F001001C
:1012400010B1E01B84B201E0601E84B23B4622462E
:1012500049462846CDF80080FFF729FFBDE8F8830E
:101260002DE9F04706460F4690469946304600F075
:101270000AFF4FF0000A00BF99F80010304672686C
:10128000904705464FF6FF718D4200D12CE009F1E1
:1012900001094FF6FE708542EED02B464246394694
:1012A0003046FFF7B4FC04467020805D30B1012861
:1012B00007D002280AD0032810D10AE0381987B2D3
:1012C0000CE008EB04001FFA80F807E0381B87B237
:1012D00004E0A8EB04001FFA80F800BF00BF0AEB8F
:1012E00004001FFA80FAC7E700BF5046BDE8F08748
:1012F000014600207047F0B507460C4621463846A7
:1013000000F00BF845B20126601EC4B206FA04F0E4
:1013100046B2A81B45B22846F0BD70B502460C4641
:10132000117B1568287808410B461D19EBB2082B74
:101330000EDB08256E1AF5B21668761C1660166864
:101340003678AE400643F0B2A3F10806F3B200BF10
:101350000125A5406D1E2840137370BD2DE9F34F84
:1013600085B0054605F160042846069900F085F928
:1013700095F96B607A20415D2046FFF7BCFF029033
:101380007B20415D2046FFF7B6FF83467C20415D10
:101390002046FFF7B0FF019094F90A00002871DDA4
:1013A000237C06EB0B0149424AB2A0880299FFF761
:1013B000F1FDA080237C06EB0B0149424AB2E08894
:1013C0000299FFF7FCFDE080A788B4F80680B946D3
:1013D000C246207C30B101280ED002281AD0032842
:1013E00042D12EE094F90A0048441FFA80F90AEB32
:1013F00006001FFA80FA37E0B81B87B2781C87B264
:1014000009F101001FFA80F994F90A0050441FFA0B
:1014100080FA29E094F90A00381A87B2781C87B25A
:1014200009F101001FFA80F9A8EB06001FFA80F805
:1014300008F101001FFA80F80AF101001FFA80FA92
:1014400012E009EB06001FFA80F994F90A00A8EBF4
:1014500000001FFA80F808F101001FFA80F80AF175
:1014600001001FFA80FA00BF00BF4B4642463946D2
:101470002846CDF800A0FFF788FC20B9019807B0F6
:10148000BDE8F08F29E000202072607200BF762056
:10149000415D2046FFF741FF04907720415D2046E3
:1014A000FFF73BFF039000BF00222846049900F09D
:1014B00016F801222846039900F011F80121204670
:1014C000FFF72BFF0028EFD194F90900B042DEDBD3
:1014D00000BF00BFA07B85F892000198CFE72DE9FF
:1014E000FF5F80468A46934608F160045546277A96
:1014F00094F8099000BFA67AF01BC6B20396B542D5
:1015000000DA0395A0880290E0880190237C4FFACE
:1015100089F279B20298FFF73DFD0290237C4FFAE1
:1015200089F279B20198FFF74AFD0190BBF1000FF3
:101530000BD0A07B88F89200207C00904046DDE92B
:101540000213019AFFF794FB0CE0607B50B9E07B3B
:1015500088F89200207C00904046DDE90213019A51
:10156000FFF786FBB54200DA07E0A81BC5B20027EB
:1015700009F1010000F0FF09BDE700BF7819C7B20B
:1015800078B220724FFA89F06072BDE8FF9F2DE9B2
:10159000F04704460D4616461F464FF000096420EA
:1015A0000553662006533946204600F011F8804660
:1015B000B8F1000F05D041462046FFF7CFFE1FFAD5
:1015C00080F94846BDE8F08702460A441078704723
:1015D0002DE9F04107460D46BC6D1734FF2D18DC90
:1015E000612D03DB8820C05B044404E0412D02DB55
:1015F0008620C05B044400BF607800B908E0207812
:10160000A84202D1A01CBDE8F08160780444F3E751
:1016100025E08A20C05B0444A04600BF002140466C
:1016200000F01FF804440221404600F01AF8064674
:1016300008F10408AE42F1DB00BF26784FF6FF70D8
:1016400000EA06266078064306B906E0AE4201D1FC
:10165000E01CD8E7A0780444EFE700BF00BF0020FB
:10166000D1E702460A441078521C4FF6FF7303EA92
:1016700000201378034498B2704770B505460E46B3
:1016800005F160042660002020737820415D20462B
:10169000FFF743FE40B2A0727920415D2046FFF77C
:1016A0003CFE40B2E07295F89200A073A07B08B9AE
:1016B000012000E00020E07370BD000010B504467A
:1016C000134B144A14492046FFF7FEFB204600F056
:1016D00036FA0021204600F04EFA2046FFF78AFA3B
:1016E0009621204600F03DFA2046FFF741FB00BF5F
:1016F0000A492046FFF794FB09A31E221146204603
:10170000FFF724FB2046FFF75DFB0028F0D110BD5A
:10171000250A0008051C0008245000088E20000837
:10172000553867320000000010B504468A4209DAD5
:10173000A34201DD012010BD9A4201DD0120FAE73C
:101740000020F8E7A34205DD9A4201DD0120F2E71F
:101750000020F0E70020EEE72DE9F0470446894637
:10176000DDF82080D1B201F00701012606FA01FA66
:101770000AF0FF060027BC4694F892A0BAF1010FC8
:1017800000DC374694F892A0BAF1010F00D0B446BD
:10179000154625F00705D4F800A09AF810A00AFB1A
:1017A00005FA1FFA8AF5606B28444844B8F1000F27
:1017B00014D100BF90F800A04AEA070A80F800A000
:1017C00090F800A08AEA0C0A80F800A0401CA3F15F
:1017D000010A1FFA8AF3002BECD132E000BF90F827
:1017E00000A04AEA070A80F800A090F800A08AEA60
:1017F0000C0A80F800A001F1010A0AF0FF0101F0D3
:101800000701A3F1010A1FFA8AF381B9B4F83AA0DB
:10181000504494F892A0BAF1010F00DC012794F82B
:1018200092A0BAF1010F0AD04FF0010C07E04FEA85
:10183000476A4FEA1A674FEA4C6A4FEA1A6C002B64
:10184000CDD1BDE8F08700000146082008700148AE
:1018500070470000C000002070B504460D4600210E
:101860002846FFF7B1FE207001212846FFF7ACFEA5
:10187000607002212846FFF7A7FEA07003212846CA
:10188000FFF7A2FEE07004212846FFF79DFE2071BD
:1018900005212846FFF798FE607106212846FFF7CC
:1018A00093FEA07107212846FFF78EFEE071082104
:1018B0002846FFF789FE207209212846FFF784FE9B
:1018C00040B260720A212846FFF77EFE40B2A07245
:1018D0000B212846FFF778FE40B2E0720C21284623
:1018E000FFF772FE40B220730D212846FFF76CFE11
:1018F00040B260730E212846FFF766FE40B2A07327
:101900000F212846FFF760FE40B2E0731021284601
:10191000FFF75AFE40B2207411212846FFF7A1FEBE
:10192000608213212846FFF79CFEA08215212846DD
:10193000FFF797FEE08270BD2DE9F04104460025D7
:1019400094F8387094F83960206890F8118000BFDE
:1019500032462946204600F00AF8681CC5B2701CC1
:10196000C6B2BD4201DA4645F2DBBDE8F0812DE9A1
:10197000F84305460E469146286890F81080344694
:101980006F6B04FB08F084B24FF6FF7000EAC404EA
:10199000274443464A4600212846009700F0B6F8FF
:1019A000BDE8F88310B51A3050F81A2C817F4FF635
:1019B000FF7303EAC1014184117C03EAC101018480
:1019C000C17F03EAC1018184817FC37F1A380B4440
:1019D000547CA34204DD537C90F839401B1B99B220
:1019E0004FF6FF7303EAC10130F83E3F438043885E
:1019F000838083880B448380938AC380D38A038146
:101A00003E3810BD10B504462046FFF7CBFF10BD91
:101A100010B504462046FFF7C5FF2068808AA4F869
:101A200046002068C08AA4F8440010BD10B50446E2
:101A30002046FFF7B7FF10BD10B504462046FFF75C
:101A4000B1FF2068808AA4F846002068C08AA4F804
:101A5000440010BD10B50446002040342081A08809
:101A600060812088A0816088E081403C2046FFF7AB
:101A7000BBFA10BD10B5044634F8400F20816088D1
:101A800060810020A081E088E081403C2046FFF793
:101A9000ABFA10BD10B5044600204234E0806088E7
:101AA000208100206081A08834F84219884205DB3B
:101AB0004234A0882188401A6081423C4034E0884A
:101AC0002188401AE081403C2046FFF78DFA10BD86
:101AD00010B5044600204234E080608834F8421992
:101AE000884205DB423460882188401AE080423C0D
:101AF0004034A0882188401A60810020A081E088BD
:101B0000E081403C2046FFF76FFA10BD2DE9FC4113
:101B100004460D4616461F46DDF820808DF8055018
:101B20008DF806608DF80470CDF800806B460122B8
:101B30000F212046D4F808C0E047BDE8FC8170B50D
:101B4000044600231A460A212046A568A84770BD0E
:101B500070B5044600231A4610212046A568A84700
:101B600070BD70B504460D4600232A460E2120465E
:101B7000A668B04770BD70B504460D4600232A46DE
:101B80000B212046A668B04770BD2DE9F041044600
:101B90000D4617461E46DDF81880204600F00AF86C
:101BA000A560E7602661C4F81480204600F018F8AC
:101BB000BDE8F0810021016008498160C1600161D8
:101BC0004161002180F8231080F826108161FF21F7
:101BD00080F8241080F82810704700006520000865
:101BE00070B5044600231A4609212046A568A84777
:101BF00070BD024609B10A2902D14FF6FF70704745
:101C00000846FCE72DE9F047044688461546994604
:101C1000B8F1180F4ED006DCB8F1140F38D0B8F177
:101C2000170F65D106E0B8F1190F52D0B8F1200FA7
:101C30005ED139E04F4628E097F800A07F1C681E6F
:101C4000C5B2402609E00AF001023146204600F004
:101C50000DFA4FEA6A0A701CC6B2472EF3DD2068FF
:101C6000827B2C21204600F001FA012248212046E7
:101C700000F0FCF92068C27B2C21204600F0F6F928
:101C800000224821204600F0F1F9002DD4DC32E09A
:101C9000206842784921204600F0E8F900224821D6
:101CA000204600F0E3F926E02A464A21204600F0CB
:101CB000DDF920E0206802784921204600F0D6F9BD
:101CC0002068827800232C212046D4F814C0E047F5
:101CD00011E02068C27800232C212046D4F814C0DB
:101CE000E047206842784921204600F0BFF902E031
:101CF0000020BDE8F08700BF0120FAE713B50446D5
:101D000001AA0121204600F001F81CBD2DE9F04197
:101D100004460D46164633462A46172120462769B3
:101D2000B847BDE8F08170B504460D4600232A4649
:101D3000202120462669B04770BD2DE9F0410446B8
:101D40000D4616461F46A5F11400062826D2DFE8E8
:101D500000F01A030C151B1C00212046FFF7E3FFBF
:101D600031462046FFF7CAFF1AE000212046FFF760
:101D7000DAFF31462046FFF7C1FF11E0012120467E
:101D8000FFF7D1FF00BF00BF00BF3B4632462946E8
:101D90002046D4F810C0E047BDE8F0810020FBE702
:101DA00000BF0120F8E770B5044600231A46192148
:101DB0002046E568A84770BD70B504460D4600236F
:101DC0002A4616212046E668B04770BD70B5044625
:101DD0000D4600232A4615212046E668B04770BD0F
:101DE0002DE9F04104460D46164633462A46172192
:101DF0002046E768B847BDE8F081F8B505460C46CF
:101E000000BF2678641C182E21D006DC152E09D0C0
:101E1000162E08D0172E2CD110E0192E18D0FE2E19
:101E200027D11CE000BF2078009000239DF80020FF
:101E300031462846EF68B847641C1BE020780090C4
:101E40006A4601212846FFF7CBFF641C12E000BF61
:101E500000231A4631462846EF68B8470AE0207842
:101E600000909DF800202921284600F0FFF8641C0E
:101E700000E0F8BDC5E770B5044600231A461821F6
:101E80002046E568A84770BD70B5044600231A4691
:101E9000282120466569A84700231A4614212046B8
:101EA000E568A84701224B21204600F0DFF82068B2
:101EB00002792921204600F0D9F800224B21204642
:101EC00000F0D4F8206802792921204600F0CEF8ED
:101ED00001224B21204600F0C9F8206842792921CF
:101EE000204600F0C3F870BD01600268927C80F863
:101EF000222070472DE9F0478046894615461E4648
:101F0000B9F10B0F39D0B9F10E0F41D0B9F10F0F64
:101F10004DD14046FFF7AFFF7479E006040E98F804
:101F200022002044C4B2102040EA24114046FFF7AA
:101F30004DFF04F00F014046FFF748FFB07940F035
:101F4000B0014046FFF742FF3779F806070ED6F892
:101F500000A03819842802D98427381BC7B200BFD3
:101F6000524639464046FFF73BFF681EC5B2002D7A
:101F7000F6DC4046FFF717FF1CE025B90F49404645
:101F8000FFF73BFF03E00E494046FFF736FF11E045
:101F90004046FFF770FF81214046FFF717FFA91069
:101FA0004046FFF709FF4046FFF7FDFE02E0002034
:101FB000BDE8F08700BF0120FAE700005450000898
:101FC0005B5000082DE9F04104460D4616461F46B9
:101FD0003B4632462946204600F002F8BDE8F08133
:101FE0002DE9F04104460D4616461F463B46324653
:101FF00029462046FFF77EFF50BB092D04D00A2D4D
:1020000007D00D2D20D10CE012492046FFF76CFFC0
:102010001DE02046FFF738FF0F492046FFF7EDFE91
:1020200015E046B90D492046FFF7E7FE2068807CA1
:1020300084F8220007E00A492046FFF7DEFE206808
:10204000C07C84F8220002E00020BDE8F08100BFDF
:102050000120FAE77051000888510008625000081A
:102060006950000810B50446002010BD2DE9F0416C
:1020700004460D4616460023324629462046676927
:10208000B847BDE8F081002180F826107047720043
:10209000030204040405050F1000FD0BFD0BFF01F6
:1020A000B9044F05DB2108B10A2B0E8A0022084330
:1020B000792B1297002315B708B1B3284BC2241A05
:1020C000A65A940C4312655196022417E7E8F0D201
:1020D0002D2925A5249CD5248C9628A9484318672A
:1020E000002519CC097D7624D29AC22C0AB3248DFE
:1020F0005E4A6294F5494AB71C022617BA09F7747A
:10210000208AA3388A774053A436250A35511B9478
:102110000127074179278600280CC3FAAC92288949
:102120007A8BB200290EE4E92EC22CCCB44E522D8B
:10213000CA002A0A5569AF2A958314012B11880910
:1021400035732007B261107320077220032C073209
:10215000F92814052D0613492B062E0621092704FC
:102160002F0DB5092FB3B0166661161601300EB6E5
:102170000971B628C946DF94289A003109B40AB11A
:1021800092AD3F0D320FB6097186241BC550AC8944
:10219000C561083310B60971A62CC9D2B02CA79A14
:1021A0003224003411B60931432DC992A84B960C44
:1021B000639A0D01350EA6097186351E52B5AA29FE
:1021C00043023610B60931252D0D93451A8D9332F1
:1021D0002400370EB709330E629CC6699CC68D0079
:1021E0003812B60971A62C09C5448912251B6DCA7F
:1021F00090003910B609712629098D93B284699827
:1022000069003A0771092734013B0982E928867879
:1022100050003C0D7819B5456DCC111DD911013D0B
:102220000A3839350E3A320C023E0D7819357444AD
:10223000477624D536193F0EB6097186241B43B163
:102240003507D30C401ABB09FB0635953229C9A2C4
:10225000C81449592495A61669D0D474D0004116E3
:10226000BA087573284774648EE2281EC45A2AC5BA
:10227000C9100D014216B809356E9914466194656E
:10228000439849699226E13048004316B909F5861A
:102290004C54621DC9911CC9911C8A13311C220027
:1022A000441ABA09390E612AC551ACE44092034977
:1022B0000E24B1124769340C19004516B809330EC3
:1022C0005118E5400E64D9A0B503691226C39000E9
:1022D0004615B809350E5218E5400E64D9A0B5036D
:1022E00039900E21004717BB09F906D116473996D8
:1022F0006339160F3A90C5999A0E13004819BB0915
:102300003B866C88D2300DD3300D87214CC3344CC2
:10231000C3341AB221490AB30A2D96A8BF28004A2D
:102320000CE5D86C862CECBF451A004B18BA09375F
:102330008664C8AA519CE4808EE8481D48E4480D94
:10234000A3211B4C16B80933863807722007722068
:1023500007722007C2281C06054D20BD093F86785C
:1023600099A5244DA2444CA25AD416D5922CCA92B7
:102370002CCAC428AC0C5134044E1CBB093BC621EA
:1023800059A3248D12318AB4282B85515189D22426
:102390008A952154004F17BA09F98650CCE22407D8
:1023A000764447744407863812C521035016B8098D
:1023B000350E592685511865D210E6400EE4403A94
:1023C0008400511EEBD9F88654D4E22807941CA946
:1023D0002375A40E487126AA430EE488B2C54302B1
:1023E0005215B909350E61A68559981587344A23C7
:1023F000310B2B43265310B708B186288BE2F86CBB
:102400004D326550005415B909371EB2628EE4484A
:102410008EE4488EE4488EE4C0065518BB09398620
:102420006C88E22CCEE22CCEE22CCEE22CCEC4780C
:10243000C8005618BB0837866C48D4300DB5388BA9
:10244000B358C9913AA2433A9602571FBF083F8634
:1024500064888644ECDB164A491427513989CA49F5
:10246000A603A28E843A12A6005818BA0835866CC4
:102470000A43294E7260477420C98144CDB4345256
:10248000075917BA0835866848C45A1CC5498EE4EE
:10249000500EE5500EE5C8085A18B908330E4A9A8E
:1024A000033A900339A0033990036A9226C3A0002F
:1024B0005B0AE4EA2C06ADFF6D085C16B8083186AD
:1024C0006409232954526D18D26C18D21C4887080D
:1024D0005D0AE4E82C86ACFF6D105E0C5669B1B461
:1024E000248B922C09035F0717E82E0E0160073337
:1024F000892FA42C610E76096FA62C8D86244BB2F1
:1025000064186210B70933E42E93254CC2244CB2F0
:102510006C02630D76096FA62C49AB9232240064DD
:102520000CB60931D596D3E8980C02650E76097180
:1025300086441B0635D5922101660CB508A996B0D4
:10254000364461B7096712A6D970862DC992489A98
:10255000D24109C56448006810B7082FE42E9A5488
:102560008BB2288BB2E4006908B208678A4A1F6AF6
:102570000BE3D8A8EA80D42F89026B0EB6082FD4BB
:102580002E4B4D14932C31096C08B2082794FE325F
:102590006D11790A391249916C9996699996495A3F
:1025A000006E0E770971124DAA4559944559726F04
:1025B0000D76097186444A42376548007012A7D8E3
:1025C0007092C9122661122699324871AA02710DC1
:1025D000A6D9708644138D5B32A80D720975092D3A
:1025E000145BD80D730C75092F86241447715000A5
:1025F000740A84196BA221C9BA0D751076093124A9
:10260000254BB2244BB224529600760E77082F96B3
:10261000258B8A49A8CA190077127B0837964B5632
:10262000CAA230694C125592B30C780D77082F96D8
:10263000250AE5748B94037911A7D82E96258B8AE9
:102640004998A4711A872A007A0D76082D06250A62
:10265000C5A2362C007B0CE4E9ECA2AC4909B51EFE
:10266000037C07E1FB2E3E087D0DE4EA2EC2ACA3FD
:1026700022659D32007E09273A3586285B000000DE
:102680000004FFFF248817B80DBDD21DC8811CC8E7
:10269000811CC8811CC8813019A200248918B90C7A
:1026A0007D8630D3C21CC9811C90732047C2288C00
:1026B00086210A248A17B90C7D8630D3C21CC981B1
:1026C0005847742847B24C4A862C248B17B90C3DC6
:1026D00073404EE2248DD228CCC261887324CB860D
:1026E00024248C15A90C7D062D47726410331DC956
:1026F000911CC96A8318248D17B90C3D553947724E
:102700002019252DCCC22CCC242919B200248E18D6
:10271000B90C3D0E519823399023399023399023D9
:102720003992466900248F17B90C7D8630D3C22CAC
:102730000C9578D4A4344AA350490629249016B99C
:102740000C7D5629AC85599849E292033992036170
:10275000A20624911CBC09BDB25335CAC2280BA3E2
:102760002C8CB230CAC2280BA32C8C5AA6292492D6
:102770000EBC09BDD2ECDAFF9F926D0924931ABCFE
:1027800009BDB253164659188769C738CB8128CC82
:10279000A22C490E4A00249419BC09BDB253244608
:1027A000591887694D0ED5388CC3285292690A246E
:1027B000951ABC09BDD26C5443354BD2A81A559317
:1027C0002C4D86214B9B926D0924961CBC09BD7231
:1027D000E820463912E54834A45124C6611CC6617C
:1027E0002229C9340524971EBC09BD52698CB31C2B
:1027F000C872204AD44811A32C8CB230CAC22852C5
:1028000092690A249817BB0A3DA461AA95B26A98F6
:102810008669580DD3300DB3212B24991EBC09BDF8
:10282000B25316465918656196A4A11A2962948577
:1028300051164691924C5300249A1BBC09BDB29389
:102840001446611685591466912D5BB2388CC334D9
:102850004A262D249B1FBC097DB6294BA25A92A55E
:102860004916465926659DC22C49B3244BA264984B
:10287000960000004900030204040304050E0F0043
:10288000FE0BFE0CFF011A02C70441200500440C98
:102890002515A7C49B2C694A4A89962891524A4A11
:1028A0004953524B00280CD3BFAB4A9444BD455901
:1028B00000290CB3C58B2CCAA22E5112012A0D86F9
:1028C00055BC34524ADBA2D4D2082B0A76D5BBB40D
:1028D000346C69092C0842350C2551002D07176C02
:1028E0008C43002E0622458C212F0EC635DC300D80
:1028F000D3621AA6619A02300DA6452C2D4A421FBA
:10290000932893003109A5C68CB13F0D02320DA664
:1029100045AC294BB234EC711802330FA6C4AB2975
:102920004BC3508D936C4B86043410A744CC544C4D
:10293000B2288B6AD1308471093510A6459C414973
:10294000D3218AD4749B942101360FA645AC295A11
:1029500093451A8D49242D00370CA6459C614BC325
:10296000344CBB013812A6459C21C9C62D19A2447E
:1029700009C52D191200390FA6459C494A429BB240
:10298000A495289A003D09475C8C434E38043E09C3
:10299000B6458CB8C75E013F0EA6459C2109C534DB
:1029A000D3D2AA28014113A7CCBB34099330C9A2C2
:1029B000AC34485912269A004213A7448C412B6527
:1029C00051160D59294CC2241B0605430CA6C4AB55
:1029D00021C9D49EB368014414A7448C412B854976
:1029E0009884499884499864C92001450FA7C48BED
:1029F000535C1EB2B89884C39000460DA7C48B5395
:102A000098C4F190C55D014710A7C4AB21CA92B824
:102A10006D089330CAB209480BA5C58BCC6D18322E
:102A20006F01490AA5C58B410AFB69104A0DC7B45D
:102A3000AB418CFB93140D19004B10A5C58B4C4A70
:102A40004A49342551254AA22D4C0AA6C58BB43FCC
:102A50006A09004D14A6C58B501BA22149966449F2
:102A6000964489944889024E14A7C40B4DD1122D67
:102A70002925A5244A4A494DC994304F0CA7C4AB17
:102A8000AD92FA9A64D9045010A7448C53A6844995
:102A90009864CA20C5AD00510FB7BCABAD92FA2205
:102AA000259196A489005213A7C48B412B6551161A
:102AB0000D591246599445D124530DA6459C294BD6
:102AC00042D971531600540CA7C49B41896A715FA7
:102AD00027005515A7C48B490993300993300993F2
:102AE0003009934C1A12005611A7C48B49C92229E8
:102AF0008BB2244C526B9C015714A7C4BB484A4A62
:102B000049944C8AA4488A9668511602580EA5C565
:102B10008B4CAA44622D8992D216590EA7C48B49B8
:102B2000C92A6112CA5D27005A0FA6458C4316A612
:102B3000611AA699382C005B0AE43F8C41EB7F1B9D
:102B4000025D0AE43D8C21EB7F1B045F0717B48B09
:102B50004300610E77459CADAA2951166549B2081C
:102B60006211A74C0CB965B28449988449A60C0A35
:102B700000630C75C59B2189C4A2942C006411A626
:102B8000CDCBB43424529225599225593408650E80
:102B900076459C218AC66150B5644800660CA6C57E
:102BA000BBA96DD0D26E8302671296359C454BB29D
:102BB000244B866C4842311912006810B7449C546B
:102BC0006ED1A45A944559942507690AA4469C1CC1
:102BD000D37A1A026A0BC435BB1CD37A9386046B72
:102BE0000FA74C0CB949AA25E1186551B40C6C0A21
:102BF000B545AC68EC4F83006D1078448C8312555A
:102C0000A24A54892A51252A6E0E77440C45936AAC
:102C100051166551961C6F0D76459C21AA84C624D9
:102C20008A8604701197340C65B28449988449A649
:102C30000C523A02710D96352CA5341AB7645043E4
:102C400001720C77448C495AA2B8719000730B75CD
:102C5000469C2553576D5000740B9545AC301AA413
:102C6000B0AB00750F77440C49CAA22CCAA22CCA7B
:102C7000B241760B76458C4589DA446B0477107740
:102C8000C40B65482229929249D1923004780D767E
:102C9000458C458932354CA28A24790D96350C69CC
:102CA0008B5A42639A89007A0B75C58B539895921B
:102CB00068187B0CE3B7AB24EA126551B7007D0CB2
:102CC000E3B58B2CEA2D89BA4400000000086001AE
:102CD0000DC0FFFF4E000A2EDC7F34191E044E0D7E
:102CE00020EEB47F34191E742087733447A51CA9C5
:102CF000C551584B1331CD811CCEE11CCE014E1A6B
:102D000023DEB4DF28C7A21C8B722C8AB3282BD5F4
:102D10004AAD49544DA2244E221DAA6351960C0F70
:102D2000024E2427EEB47F34191ED428C7A21C7883
:102D3000D0A25AA95669AB44499449599245719613
:102D400043590E24598E44004E2D1CECB5DF1CCC8B
:102D5000C1CAF01056C24A58092BC341CEC11CCC7F
:102D6000C11C8C014E3B1FEEB4DF9CA0C35936BC86
:102D700023399CC3399C23C3218772388773384C0D
:102D80008607014E4923EEB4DF9C90C55914675164
:102D90000EA43910E65096437530C9D11C4D7248C7
:102DA0008BE561C712004E661BECB5CF722AC6C90F
:102DB000700EE3300EA3E1310EE3300EB3240DE3C9
:102DC0001C4E8B23EEB47F20073EE4400E0DD7ACA3
:102DD0003ADCA11C190E399445C3830E64E170C816
:102DE000A11C95014EC525EEB4BF1CCE8134190639
:102DF000AD580B332D8C92AC1A466998C4690E8479
:102E0000499C55A3744A7220014ECE25EEB4BF30C2
:102E100047C21C097324CC913047C21C097344CBB0
:102E200081282947499466C5B67292E548004EE567
:102E300020EBB67F24CA81A81865A530AA03510EDD
:102E400044391015A3248DD4A49A8562B2034EF69A
:102E50001CEEB4CF3A12E6405407A272360C91949D
:102E60008549316E190E51DC3F024EFB25EEB4BF91
:102E70001C4ED764C8813407D258ADA45965384474
:102E8000690EA43990E6409A03690E44C3A0004E2F
:102E9000FD25EEB4BF3407B22407B224CEAA59519F
:102EA0004AA3248AA52419C65A580B6B6116962A80
:102EB000691286004F5C26EEB4CF2C87B21CC9C2C3
:102EC000DA3044521227A5340A07B18E84391266CB
:102ED00061386C618E843912A6004F7F26EEB4CF24
:102EE0003A12466132DCD2581A8628895AA28ED10B
:102EF000308469144675204B7220CC912C9113714B
:102F00004F9B27EEB4BF529C457116A5619464D1C6
:102F10007011A32C09A3348CD2643844399C55B366
:102F2000B01467490E24004FDD27EEB4BF1C48A340
:102F30006108A3B016D6C24C1BA624CD81643844C8
:102F4000A91C2A6996446154AB646194A6004FE1C0
:102F500024EEB4BF3047D21C4886530E47C320E945
:102F60006092C3D13068399C0D6316D6C2DA3066E0
:102F70006104501928EEB4BFB834AC719AA49564BA
:102F80001814258A93D2B025A53809E3643844493A
:102F900096A4499485592A95130050CF2AEEB4BFC0
:102FA0003A940D6A94A5C9708BB22892864129E69D
:102FB0004896445AA2246A962861A23466512D513B
:102FC0006A519A0251651DCEBC4F9D9013723847CD
:102FD000931C4C722CCAB13A12E6409CE648A4639A
:102FE00002516821EEB4EF1CCED124C7EA481AE79B
:102FF00080A40C8322E7700E0D871CC9E11C0EB360
:10300000E105517321EDB5BF3407C21CC872E270EF
:10301000D0811C8D878734C9B12487B21C48EB400E
:10302000A4430251C625EEB47F20AEA45A54CB86E9
:103030004195E2A41467C3108551284669380C51A4
:1030400018A561D4380C720E51FA1EEBB6DF1C4B7A
:10305000C32C09B324CC92304B86439C86A1188A9A
:10306000A1180EEF5800520625EEB47F24C7A21C0B
:10307000AB23610EC4698E44CA30286A9823618EDE
:10308000843912E6401A6749AAA600520724DEBC1A
:10309000AF1CCAB26190D22C1BA22C59B36A56CD78
:1030A000AA592909B3240A33298DB3244E33005277
:1030B0001227EDB4BF1CC992388BDAD2281B946852
:1030C00050A32C8DB24A94456D491685391029516B
:1030D0003626ED809400521724EDB47F3419062D66
:1030E000CC81B0940D512DEA16554A254D8BD22C2A
:1030F0000A4B598E443990EC5002521D27EEB4AF62
:103100009C902361343C64D5AC182559A64459944D
:1031100068952889B2B01666612D2C654998A4116E
:1031200000522B27EDB47F341AD4288BDAA2D22098
:10313000B545C552320C491446491446499455A226
:1031400062254AB2444C1300523023EDB47F7438E8
:10315000366569548B2AC3904461292C25C3904459
:1031600061292C854338AC491D4A00524224EDB4F4
:10317000BF1C0973E0218BB2A8966451A845912524
:10318000DA81288BDAA2B6A82D4AA3AC52AC005241
:103190009F24EEB47F2887C361CB81340AA361D01A
:1031A000D2284CA3308DC25A3865C9580AD3384B3F
:1031B000E2340352A02AEEB4BF1CCEE11C498621A2
:1031C00019B628C9C228C9C228C9C228C9C228C973
:1031D0005AB2962C4AA2649022294B721852A12608
:1031E000EEB4CF1C1E861C087320C9E22C89D31CA8
:1031F000547440C986214BC361D0913007D2384BFB
:1032000052350552A827EEB47F2887D341CBE12859
:10321000478607A99846611A655116D5A22C1986CA
:10322000248BD23007B2244E2300534A1EEEB4EF53
:103230001CCEA1AC1CD5917630478677208773E0F1
:10324000839CC3399CC33900534F2AEEB4AF340773
:10325000D21C48A3301A0665D0A2308DC2A8A4455E
:103260002D5192454914664914666116962A6912D1
:10327000860053551DEDB4BF3407B29C3A1CB3E22F
:1032800070CC8A5971B823F1F010E7688EC60053EC
:10329000701DECB5CF1C9BC761CEE44CCE86299344
:1032A0003339B3546C51A2E6600E860053732AED95
:1032B000B57F3019A461C8A22C19A42CC9A22CC9AD
:1032C000A22C19A42CC9A22C89B24A16254D4B1444
:1032D0004D491AE7680A538623EEB47F341B9EC219
:1032E0001C097324CC9164B885B5B016D6AA519840
:1032F00046599C646112953300539F29EEB47F3484
:103300001B9ED21C0873241A86304AC36818C22830
:103310000DA36108D31C882A6194455212255912C5
:10332000C70053C225EEB4EF1CCD72244D87430E67
:10333000E4C8F02046490E44591A9506450A632D03
:10334000D6744C47861C0153CC22DEBC7F341996C0
:103350006148A32C8EB2A8D6122669258DD3240DE0
:10336000B34A9403510E85B11C53E31BCBBE7F2897
:1033700019DE913A5247EA481DA9237524190E49CE
:103380008ED4910453E61DEBB57F281B4E71166752
:1033900071360C723A1CD4300DAB591C854922474A
:1033A0000053F31FEEB4EF1CCEE134191ED41CCE33
:1033B000D1381D0E591267511C6571F330C82500B4
:1033C000541127ECB6CF1CCCB138191E7228C9A1F4
:1033D000241AA424CAA224CAA2241AA424CAA22455
:1033E00087921C48EA4804542621EDB57F30191E07
:1033F000521D4B76208AC42C1CC23487D2E118A7F8
:10340000711AA7C3A0C61900542F25EDB4EF1CCE26
:10341000B2E120E5489623D970C87234479361D051
:1034200092384BE22C89A36818942C4E00544A1D04
:10343000EEB47F2087B21CCA8AC3414A73384C86D7
:10344000079D360C729F8741AE01547D23EEB4EF89
:103450001CCED124C7EA48AA268334E884211AC2A4
:10346000A8316A8C1A874809A34A0EA600548C23F7
:10347000EEB4DF1C5DA3211BC6AC342C599A55A5B4
:103480002C546A95B6A856C9B241CDAA399C4300BE
:10349000552426EEB47F2087E3211BB2A8314A864B
:1034A000216A89BA445DA26848864314A671926372
:1034B0007524DD742001566824EEB47F301CA241CF
:1034C0008B1AA3C6211A72240B8787B00EC4D93079
:1034D0000D53C7A8718886306A0256FE27EDB57F66
:1034E00030191EB438C9062989A42C99C4248BB27A
:1034F000240A87641293384BB23189B36478C9B116
:1035000004572824EEB4EF1CCED138191EC41C0D6C
:103510007324CC01314E926150A23047C21C097312
:1035200024CC91E120573024EEB47F286E8BE22C1E
:10353000AA95864332445924D54AB5929295927001
:1035400089C22D4EC238070E01574021EEB4AFB8E4
:103550006F519C45E1A044B5D22065519C45711640
:10356000C54B146E511A46D5E110578B23EDB57F2C
:1035700030198624CAA2B6A8651892288BDAA26EE2
:1035800095621DC981871CC9D130191E0257AB2312
:10359000EDB5AF3007C2745006B1142E52344661F7
:1035A000963415934429CA3932DC911C8D878700E3
:1035B000589E27EDB4AF2CCCC2288C8641AA4583F7
:1035C0002225522551A26818A41CCD866D09936D41
:1035D00098C23A7007C20458A827EDB57F2C1B0E7D
:1035E000521225B52891B2E1902339F09023F1F0E1
:1035F00090445912A561341C72244C8687005907E7
:1036000021EEB4DF1C1E76208DC538AA833A26C968
:1036100026651814AD140F839C45F130C835005948
:103620000D21EDB5BF381D6E39980C4316A5F1304C
:10363000C4693C0C718E0E431A55431DB20DF10046
:10364000591A20ECB5DF1CCCE261C8C6488B724821
:1036500007E6AD3C0C991A49590E243AB00E3902CE
:10366000592720EEB4EF1CCEE11C4E93E141CEE190
:103670001CCED12407A31C0A73204E7364D0B1045E
:10368000592A20EEB4EF1CCEE11C4E93E141CE61ED
:103690001D8C722CCAA130476A71562C0E399600C7
:1036A000597D25EEB4BF1C8E8621CC816818D328A5
:1036B0008BA32C8E86532DCDCA499803699C8469AF
:1036C000961473200559CB28EEB4BF3407D21C08DA
:1036D000D3612A46499845C3A90E4475284B862DC7
:1036E00089C25A9825511865C9B0C461025B501F40
:1036F000EEB47F301C0E3A98A339A8A361323CE89F
:10370000400EE7700EE7700E26399A035B5720EEE5
:10371000B4EF9C9023C341CBA1CA7007735047C339
:103720006478D0811CCEE11C4C7234075B5823EEC8
:10373000B4EF1C4E93E141CDD16498D3388DD54A76
:10374000321CA23407D21C4873204B72204C015B00
:103750008922EEB4EF9C9023C341CBA1621DC981A5
:103760000F6A9623618E4839B883910EA8D28E24B1
:10377000005B8C1EEDB5DF1CCE812F39A663D930DE
:10378000E8A4E135CAA13A5447B2300AC379105BC4
:103790009A24EEB4EF9C9023C3538E2539960D875F
:1037A0001CCAA12C87B21CCA0635CB91520E647379
:1037B0003C0C015BF820EDB57F2447733447A364CC
:1037C00078C89138CD813047B21CC9723447732C08
:1037D000C9C1145BFF21EEB4EF1C0EB3E11DC8A1FB
:1037E000E1900339323C88690E3C26619A156B756D
:1037F00020C9D1105C0F1FEEB47F20877338877308
:103800002C4A72242A67C5A63495D31CC8E11C4CE7
:103810007234075C3129EEB4BF3447C2241A06253E
:10382000CAB1281B9EB2A49A25D541A90359922654
:10383000521246499356892A515B140E5C3A24EE83
:10384000B47F301D0E610EA43990E6403A5CB31C83
:10385000CA7228CC913007E23A10E6D09083090072
:103860005C4025EDB47F301B0E528E6439920D877B
:103870002C4787839443A5416A8B4A839464719251
:1038800023898E25005DE51ACEBC7F301BDE811CAE
:10389000CEE11CCEE11CCEE11CCEE134191E045D4C
:1038A000E61DEEB4DF1CCEE1D2F090E6680E579331
:1038B0006110EB401A57732087B36C785E0324EED7
:1038C000B4EF1CCED138191EC428C7A22C1D0E5926
:1038D0001265A55A9445591C65719494A33A160330
:1038E0005E3822EEB47F2087B272541C1E921CD424
:1038F000862149EBC021C77268B866D5AC9A453AB3
:1039000014035E452AEEB4AF1CCAB2619072709087
:103910000629296551521AA4A40E259561483A55E5
:103920003A5592C390956AD93064D5045E941FEEDF
:10393000B4EF9C1066C3530E673914D692ACA9310C
:103940006ACCAA593107A2CAF00E035EA621EEB4D2
:103950007F202764D9F0945593E1D69A0D6A0E27FB
:10396000C32066D53049E3A2A245EB005F0022EEFA
:10397000B47F301B5EC31C097324CC91304A860788
:10398000B18E843912E6489803695CD481105F0FC8
:1039900025EEB47FA40E46391645C3838EE4703CF1
:1039A0002C3994E5509643618E84593844D1A00354
:1039B000498E0A5F2028EEB47F201EA4308D323558
:1039C0002A0E5192D6816CB80C51922351922351F8
:1039D0001D88EA4094D492CC1456005F3A29EEB484
:1039E0007F301AA4618DB238CAB2211AB41C48C300
:1039F00061888624AA2651351986344CE230AA24DF
:103A0000C3298B035F6922EDB46F7990C3288B3A89
:103A100066510EE4C04394562735A946499445D5CE
:103A200028CB742051015F7125EEB47F20CC862114
:103A30002B66E130A561120EB71C0D87290D937816
:103A400058B344CDA224ABD4B4920A5F8525EEB41A
:103A5000BF3047C21CC88621AAA5591D4986530EEE
:103A600084D270487220CDAA6194E6405A49E3108E
:103A7000600124EEB4EF1CCEE134191ED42407A358
:103A80001C4A2255CB06394B93B0128559922651C8
:103A90003547860D603B22ECB5BF3007B21C88E28B
:103AA000E19603590E6439900DE71CAA4549142686
:103AB000D5444AE36102606F21EDB5DF1CAC0EC74F
:103AC000381D06354E87418DD361D0911C29855113
:103AD0001295A4340A870D610F21EEB4EF9C906516
:103AE000C373940E0F3A6D18E4F230C8E561509339
:103AF0006225AA44D9B02400621026EEB47F208744
:103B0000A31C2B0E4F618E843932245918354695EB
:103B100034AAA4515649A6244AD22C115501625305
:103B20001AEEB4BF1CCE91301A1EC4B8F398CA99CD
:103B300012F7631226691C02626727EEB4BF304792
:103B4000C21C09D3418BD26818C252AA45A1344580
:103B50004A18A55952CD2A5914269DA52447026218
:103B60006B26EEB4BF1CCE91301B1EE23047C21C48
:103B700009E74C1B162547C21C097324CC912889E0
:103B80008621CBA10462A429EEB4BF3047D21C48E1
:103B9000A3645086418BD2304A43651832294D9434
:103BA00028C7A21C8B722CC9A1A48E25390462A53A
:103BB0002CEEB4BF1C48A36108A3301A94308D22A8
:103BC00039CA3165183229C912254AA234AAA4512A
:103BD0001647952C89924CCAC40462E925EEB4BFFD
:103BE0001C48A36108B3D23025719A0361A22A4A06
:103BF000640D956818C2340792E19656D2B80863EE
:103C00000928EEB4BF3047D21C88868724CE92287C
:103C10000BEB88320C925652B26A94C5D90E848945
:103C200096446296E84000636227EEB4BF3A94E59A
:103C30005036648392C5499603D130844354935AD5
:103C400094A831196E61126751984461451663A5B5
:103C500027EEB4AF3407E2DA3024839485699246C4
:103C6000C329C972404C97E11085599849692A26A1
:103C70006134456B0263A928EEB4AF3407D2AC348B
:103C80003C48499C25D5A8711906454BA24A368C5B
:103C9000591285D930A6A19286490E0C0263CF2510
:103CA000EEB4BF529C4571323C48E52C8A735819DA
:103CB000864C6A51A2C66818C2A831EA120D435652
:103CC0004D00646927EEB47F204786A75A3C2883BD
:103CD00016656AB228A1D22425C320A639900C8388
:103CE00098C6C97050E234560164E626EEB4AF348B
:103CF00007E2D270AA0383B46C15254C94289586EC
:103D00004D8A97CA30C6B5288992282995530065EF
:103D10003928EEB47F24C7A27418921C8BB23819CC
:103D20008634C9B26189B238CAE2288B9330AB2697
:103D30005A128A590EA802653E27EEB4AF3807D250
:103D40001C48A3641892614AA33094C2212A468D6C
:103D500051968451984661AD92255A255503657058
:103D600029EEB4CF6A944471A245C9302883A6B520
:103D7000D8A24A2DCDA26818A2248D2AA112E680CD
:103D800096845292256A01657429EEB4CF3A128660
:103D9000C3A00C62561A86A4162551920D5B9A6830
:103DA000C92025B56C38E4508E45430E44F1F0200F
:103DB000658721EEB4EF9C90C361343C847524CCBC
:103DC000A12C87EA6092A3399AE45826CBC30E252A
:103DD0000065B921EEB4EF9C90C361323CC8399CB8
:103DE000E5D0B003618E843990E6401A57C3248D24
:103DF000530065CB29EEB4AF3447C22C0C87971C17
:103E0000C9726848862DCAA22C4ACA51920C59948C
:103E100094A3A49A25D54449C4E21065E01FEDB5EA
:103E20007F2C1A9E7334472BC3439AE458926349FC
:103E30000ED5A162568CC2701E0465E524EAB77FD8
:103E400024190E3A90E4409203490E24C3250792A8
:103E50001C487220C98164B8E4409203090065F6E9
:103E600026EDB57F2847B321CDA26438A5599466C5
:103E700043548BB2248BB2248BD26C48B328CDE24E
:103E800024074300662F23EEB47F2C070E729A039B
:103E9000871C4873E0905392E141AB43D9304A39D3
:103EA00012253910CA3970663E24EEB47F301D0EDB
:103EB000610EA4C33507D2E19A033910C559949510
:103EC0005A9328899348876AC9F020666E1EEEB41B
:103ED000CF3A541E9EA31C885A9328C986079D3644
:103EE0000C727918E4CEC3A001666F22EEB4BF61F4
:103EF00090CBC320978741C7C26478D069C320970D
:103F00008741CEA2344A32454C1300668226EEB475
:103F1000BF1C094BC32159932C1E9661CCA2744837
:103F2000A26889B274B8E6403A5C7320CD817438D7
:103F30000166F422EEB47F341A1E7220478643587D
:103F40000B8743580B6BE17048B31C4B7234071559
:103F5000791D06670D2DEEB47F341B9261882A61AE
:103F60001625613624911825391225C33624A52C2F
:103F70004A1AA3A4314AA2304BDA928AB6456102AA
:103F8000671F2AEEB4AF721645C3322C59A9960D9D
:103F9000D1A045B5522D1BA2AC140DCA302459989E
:103FA00044594B16A551520D2300672C20EEB47FC7
:103FB000208773388C86871CC8D11D4BEA4854CEA5
:103FC0008A2DCA70C9811CCEE118673A27EEB4BFAA
:103FD000B836A859146751362C519C45E954554AB6
:103FE0006192455994457116D5A22CCA9230CAE403
:103FF00001675027EEB4BF1C487320CD81685886F6
:1040000021CB813407C25554B2244BA224CA92ACAE
:10401000D498E6405A49E30C675F25EEB4EF1C4E96
:1040200093E141CEA1E11066612D0C874398693977
:10403000A0E45012E54094A5593888690268072722
:10404000EEB4AF1C0E073107071DCCA12C1B066573
:104050004D9528292561524AB2A856AA45599485FA
:10406000499CA6006A2129EEB4AF304AC328C9A2F0
:10407000E141AA66C3904969A424C31029D5A43696
:104080000C49350792E11085519A8515596A2A29FC
:10409000EEB4AF304AC328CD862119A46A349CE21D
:1040A000741A864829556AC390D4A25A360C5918F6
:1040B000A559A82572026A612AEEB4AF3047C24101
:1040C000CC6A43320C5AA9960D43B4E580D2548988
:1040D00092444BB2440913A5318B6A89528BD21496
:1040E0006B2127EEB47F2007D21C0973A434AC499E
:1040F0001A46499426510E24593A267198C45935C6
:104100000B4BB1A60309006B6322DEBC7F341A1E81
:104110007220877328CBA1AC9A0D639643590E6524
:104120003994E5501626C383006B6429EEB47F24CE
:1041300087B21CCA7228CB81246B59222DC9D62480
:10414000CB8124CB8124CB816409A32D1CD230C91F
:1041500081416D0122EEB49F3807D21C48B37438F8
:10416000E840DC920C8398A3D9306D612DAC85B505
:1041700061CCC2086D4B27EDB49F1C8B92418B9292
:104180002C29262D5AD253D28BD229E929E932255E
:104190003DA64996844994251DA3046D532AEEB487
:1041A0009F3807D21C48866B56C9A2304A732089B3
:1041B0009228CC926A248552928549146661924570
:1041C000A19A8439006E0527EEB49F380792E196D4
:1041D000E6D83044391027C341A9A3D13084511AFD
:1041E00069C39055B36C18B26A5694006EDA27EE24
:1041F000B49F3807E2284B86431C466194451DC393
:10420000610D7320AC884994659298285958899615
:10421000504C006F1426EDB49F3407D238198E39F4
:10422000200E43948469920C4316B545C39068519F
:10423000DB304461D6AA243A10707022EEB4DF1C41
:10424000AE0C0F6A0E4739166569525293E6A439CF
:104250004CD2302BA6710E483A9200716729EEB409
:104260007F341A946148B2288BB2288B0625D2324B
:104270001DC99261CA92301A9430CA926127D54AF8
:10428000594DCC0A724723EEB47F2447C21C0973F0
:1042900024CCC2E1A0E5700E0F430EA43990E64095
:1042A0001A577320CC911072B629EEB4BF3047C2B2
:1042B0001C09932C0AA32C097340196E610E887196
:1042C0009225A192253910657114A6491CEA48006F
:1042D000738722EEB4EF9C9065C33B902359544CF6
:1042E00086288EB2346A8B86290772E0839CC33994
:1042F0009C03740625EEB47F34073E2451AD54CBA5
:1043000086212B550625AA65C390956A71BC0C437E
:1043100032A73910A5C321752823EDB47F301B0EB9
:10432000529815B36C38646156CC8A59361CB23039
:104330002B66519A4569D21C450075311FECB6DFDA
:104340001CCCC11CAC0C0F6125AC8495E1A08495FC
:10435000B01256868392430900754C20EDB57F2C30
:104360001C0E59E370CC8AC339CB81B49225839457
:1043700045699603619C867208767D20EBB6CF1C5A
:10438000CBA13419DE913A524792E190E4481DA93D
:10439000237524190E498E2400768427EDB5AF3499
:1043A0004EDB92411A862C09934C4DB2284B062DB8
:1043B0004AB25292C5491627599C0C5A1265610699
:1043C00076D823EEB4EF1C1B0639CAE22C4A92E1E0
:1043D000418B4B591A26628E26C3218C1AA3C6A87C
:1043E00069781076EE1EE9B77F20190E71122771D9
:1043F000320C4A9CC4C9302871122771320C4A9C75
:104400000077ED26EEB4AF1CCAB261907274D0A1F1
:10441000241B96280B6B61322CC39885753489B2A6
:10442000306ACB912C1C0E780128EEB47F301A969E
:1044300061CB91B016D6B221CA4AB5488A86218985
:1044400072A4940C4B32E4482947EA481D8D007948
:104450003A1CEDB57F2C1B0E3A6FC9F010E75025C2
:1044600007A26AD65849C334C9C11C79D226EEB412
:10447000CF3AB085439A0359521A96529825592437
:10448000D5A2254A93A84B0E44E56A0E643A92E8F9
:10449000007A0D22EDB4CFDA10B5558A69362CC3F7
:1044A000568CA6306919965A2865C356CC8A592964
:1044B000C95A007A3F2AEEB43F319C86530E878357
:1044C000344859180E9A8E2EC3A054E4A4940C4973
:1044D0001625519245C99064519C45A9027A7A1FCC
:1044E000EDB5DF1CCE812F39A695C2B40E28CA3097
:1044F000243990A3399AA3391A0F0F017ACB1EDE03
:10450000B4EF9C90C35936BC13D31C097324CCA1BF
:104510003A16E55894A361323C087AEF2AEEB49F2C
:104520001C88B3A856AA0CCA30E4942C1906250A94
:10453000D3241A86288992B64ADBD2454CDA81A464
:104540001D0815007B4923EEB4BF3407D2281B9405
:104550006189DAC2244B873B140F0F3A160EAF75F0
:1045600024CC9128C9D1107B5424EEB4BF3047C26B
:104570002C1B94614AA26294685118E550A80E83DE
:1045800032E858380C72E761906B007BA124EDB4DF
:10459000AF341E9441A9255925CB86971C938621BB
:1045A00009D37818E21C1D06354E87418D23007C07
:1045B0007B24EEB4AF304BB32807A2241D1ED2A437
:1045C0008E44E52C93742847E2E1414E72AC0EA86C
:1045D0009A0E097C8925EEB4BFB898645112256102
:1045E000A24569561A96B01447072D29D592306A0C
:1045F000AB66D5A8922661067CFB21ECB57F64787A
:1046000087722C0C8721477428CC86430E845994DA
:10461000A4599485D99684690C7EA727EEB4BF1C53
:10462000489361D0C22CAC95DA862C1AB3300BB506
:104630006458DAD2A4AA64D9162559291313310172
:104640007EB525EEB4BF1CCEA2348CD22889C2A878
:104650006D90CA5994865136288DA52455A2249A66
:104660006A5163290E7EB828EEB4BF1C48D321CB13
:1046700086388BD22889C2216A8C8641CAA27050A2
:10468000A234CC62258B862C8992A2B9007EC825E3
:10469000EEB4BF3A9415C3610BB352D236A43910AD
:1046A00026699845835253722007D46C94734087CF
:1046B00033007ED327EEB4BF3407D2B89445C32568
:1046C0000AC321CD816818B21C1CA4614AC35409D5
:1046D00093210BA374D89130017EDC28EEB4AF3067
:1046E00047C22C0C87A9A24559D23624599C266171
:1046F0009A4543325CC2AA12465B9885C38E8411E8
:10470000007EDF27EEB4BF3047D228CB86414AC2B5
:1047100034CAD221AB46C39085513648C5348AA5E8
:10472000DA1855C22C0AD5017EEA2AEEB4BF30470A
:10473000C2AC3628591A655196644332DCC21C0853
:10474000B368508621CA922C950669CCAA830E655F
:1047500011007EF428EEB4BF3047C2240DA3341CF0
:1047600086244AA46C484A71366C61940D52311DFE
:1047700046A93646613A0C3910037F292CEEB47FE6
:104780002407E2D270C9E224AA0C87284B23659043
:104790002AB56488922C07924193922C11932C078E
:1047A000924107922C017F511FDCBD8F0F39368556
:1047B00089D249AA44529629A54CE9B455744CC7EC
:1047C0007424D1A1047F6E20EEB47F301C0E5AD425
:1047D000381C722447868738C786412E0F835C1E9B
:1047E00006B9363C08800321EEB4EF1CCED26148F6
:1047F00072A88E2559323CC8393A0CA2146FC30EE8
:10480000E7700ED54111801725EEB4BF1C48E36553
:104810005876204D072D07D22119961D48E3715077
:104820005AD6A416466956CDCA430080CC1FEEB4B2
:10483000DF281EA4488EE6291CA26CD069C32097ED
:1048400087412E0F83DC98C4690880F62DEEB47F73
:10485000241EC2344A864189726C88B252924691B3
:104860009225C91065A52C09A32C09A3308DB2246B
:104870004B4AD910256A0280FD29EDB5AF3007C239
:10488000384B226558762C4C06254CB268500625CC
:10489000CE922C1A9444ABA85912261D93281B04BF
:1048A00081EA1AE9B7BF1C8887430EE8C0830EE887
:1048B000800E3CE8800E3CE84000826F20EBB7AFF2
:1048C0001CCCB2E11467C3A0C5599C0D83968452D9
:1048D00045CCE22412D541471200827224EEB4CFB7
:1048E0001C1E7620CC8130071EA4240B6B612D0C7E
:1048F00087439823618E453916E558361C04828219
:1049000025EEB4DF2C87B228191ED42C87B2743858
:10491000E8489823618E843912E64894E448964327
:10492000399C0383DC27EEB4DF28C7A22C191ED4E0
:104930002847076DD8E22CCA812809870735D1A1FD
:104940004A0E64511A66831A2600884C1FEEB4BFC3
:104950001C48A361C87234CAA12C07C26438C9615B
:10496000126751DC1F93380D01886823EEB4EF1CE9
:104970000EB3E11DC8A1E1902339F0414D722CCA5C
:10498000522D49933094DA81241CE5048A0019EEF3
:10499000B4EF9C1026C3834E1BEE5C873B7518E476
:1049A000CEC320D7008A9E26EEB4AF9C100D4332B2
:1049B0004C391C0FD1A063518E45D9900C834E19F0
:1049C000A2616A8C1AA3211AA6C6048B6627EEB4CC
:1049D000BF240B874189B2281B946151A2A422A550
:1049E0004B94E4809229C33B711874F230C8E5619E
:1049F000D0008BA125EEB49F1C88D51C4873388746
:104A0000A36448865B9A03690EA43990E64092E558
:104A1000809803690E87008BA423EEB49F3807C4E7
:104A20001C09733887D33507D21C0893384CE23001
:104A30004A935A2A85A558D381048BAE22EEB4AF8F
:104A40003087C21C09A31C29E548186D61531A461A
:104A500069258D2B59926AC52C15E5048BBE26EE6F
:104A6000B4AF1C88A3618DB21CCA72281C862407AF
:104A70009561CDAA5935899258CC8130C9216D9460
:104A800013008BD526EEB47F28CD81248CA32C195E
:104A90000E3994C3E134C8619486511A4669982549
:104AA00051122D254595722C8BED25EEB49F1CAB34
:104AB0000C8728CDE11C1B8668CCC25A980C87282D
:104AC00087B3614C8AA114D6861D0923008BEF237E
:104AD000EEB49F1C0AB361C88A3912E6C830ED7083
:104AE000360C595C1A4E71254B52AD98A5A29C000C
:104AF0008BF724EEB49F1C88A361D0E21C1B763098
:104B00009C86530E67C39885B5614C8AA1348C5935
:104B1000982399048C0328EDB49F1CCE86218B9A90
:104B200087218EA2211B86284BA32C59A22C69CA4F
:104B300092A6A4B2444A1C1593304E008D852BEEEC
:104B4000B4BF1C09B36148062D0AD328AC25C31293
:104B5000A939988483940C49162561168D83948411
:104B60005992E9483A0C028DB31FEEB47F2C1EAE69
:104B700071CFC3A0633994E550368C598E68399251
:104B8000283910CA39708DEF27EEB47F241EA45A3D
:104B90006990B224AB29C541CB8130D19225544ACA
:104BA000C396642D59CB9245E3A0A559048DF32DEE
:104BB000EEB47FA438644918654918494969482A00
:104BC0005A922971988489A46849A23425611225D2
:104BD000C912855B148D5914AA038F6C23EEB4AFF0
:104BE000B87158862D4E93B4120D0F528E8439929F
:104BF0000DE31A0D991226690EC47520028F6E25D9
:104C0000EEB4BF3407D2384DB2614AD230AB44A9BA
:104C10003228399455B3281D9251C9C25A580B8B6A
:104C200083028F852BEEB4BF3407D2241AC428CB5D
:104C30008641A956A2614806252A46C3102A516515
:104C40008886214AA2C6A8316A8C2A0A008F8A293E
:104C5000EEB4BF1C09B3E12109B37098922C8C9279
:104C60006C58861DCCA2388B6ACB90244316A95968
:104C700054CB9428AB0D8F932CEEB4AF3407527104
:104C800058A2B02DA90CC99463C32D4CA2A4980CB2
:104C900049714A2A433224A5A4941493280B9344BF
:104CA00052008FA82AEEB49F344AC32C1AA464D0B1
:104CB000811C48B228C9322D1A9661882A59588B0E
:104CC000066918A22CAC855935CAE2088FB921EEC5
:104CD000B49F3807C41C09B378B82359B266D5AC61
:104CE000580B6BC5529664499C653AE1208FC723E7
:104CF000EEB49F1C497320CD811C78C8B16C0AD3D7
:104D0000AC1A46690EA4399056C2240D339D70101A
:104D10008FD923EEB49F3447D21C48B37438E4587B
:104D2000B655C3244E73204CE2AC1AA55992639930
:104D30004E38088FDE22EEB49F3807D2AC321C7298
:104D4000208793708BE26818B4B8CB7088E234493E
:104D5000C34C271C04900025EEB49F1C0AB361C805
:104D60008A3932EC48186D616D18B3246B4AC2ACB5
:104D70009A4D5212A549A6130E02900926EEB47F51
:104D8000240E931C9092288D86218ED2350792E1B5
:104D90001085491C2671984459A9A5B86439E101C8
:104DA000901A25EEB49F1C49A361082B39340C39A5
:104DB00010950E431835468DD130845163D49694A6
:104DC0001229CB090F901F25EEB49F3807D2AC32C1
:104DD0001C7224C786219A1AA36108533954D22C15
:104DE00089C2A81625619AE58407914D2EEEB47FFD
:104DF0003419866498921C8886354AA2344AA26483
:104E0000909228C9226589C3241E96384CC2244C2E
:104E1000C26458C2248C060191922CEEB47F3419DE
:104E200096618892288C06659892C628A90C5352E0
:104E30000C15250AB36418924C0B076598B2301C08
:104E4000C4E2300891CD24EEB47F681C861C8D87A7
:104E5000071DC8A16190B3281E06398BE261D0B14D
:104E60001C190E39140F0F02949F26EEB4AF1C4884
:104E700073201DC2EA302469140D534909A3C6E109
:104E80002189DA813407D2244DE53407320095199F
:104E900028EEB4AF304AC328CD86211AA2621A6523
:104EA00043321C921CCE866950C25A581BC6A418A5
:104EB0004AC398851100952E2BEEB4AF1C48732081
:104EC0005594410AB3240A879730C9A261D0C228F9
:104ED0001B96618B92284D2AC324656994E850384B
:104EE00008957F21EEB4BFB82A873992E5501D4B53
:104EF00072647808A31CAB43618EA4391059672DE6
:104F0000C70095F429EDB59F1CCA92E190E4481DB5
:104F10004BB2414AB2529295926C9092AC9464A575
:104F2000241BA424C7921C69872200966426EDB531
:104F30007F241CC252966449564AA2349192415130
:104F4000D2300A4BC345092B5125CA4A4954C9E4FA
:104F500014975928EEB4BF301DA66A364C8312C58B
:104F6000D13024C316E5C04119B4A8568A06659805
:104F7000B252346869568D8C00976223EEB47F3448
:104F8000191EE41CCDB1E1A045B5D290956AA55A91
:104F900069C84AB5522D1B0E5A0E2500987522EE8F
:104FA000B47F34191EE41C0DE3E11A97B238CAE24B
:104FB000288BA32C87921CCB7420967624019AD838
:104FC00020EDB5EF7878C849C310A7F130E4B4E11B
:104FD00020E5506990DAA2D220D5A13AA2009ED84D
:104FE00029EEB47F281DA6244BA2A62189D2241A1B
:104FF00006659872204D872907D278506A72142668
:105000004D955298A471000000000000051A000898
:10501000551A000817110008111A0008751A00081F
:105020003B1100082D1A0008951A00087F1100088E
:10503000391A0008D11A0008D5110008051A00080D
:10504000551A0008DB100008051A0008551A000858
:10505000251200081815A415AF19FF1815AE15A5CF
:1050600019FF1815A115C019FF1815A015C819FFAB
:105070001815A115C819FF1815A015C019FF0000B3
:10508000000196320101327800093D0000042850E9
:1050900010080004800040001815E215AE154015F8
:1050A000A115C015A615A2152F15F8160015271560
:1050B00081161815AE15A519FF1815E215AE154085
:1050C00015A115C015A615A2152F15F81600152740
:1050D0001581160C15AE15A519FF1815E215A215A8
:1050E000A115C01540152C152E152F151015A61538
:1050F00081151E15AE19FF000001963201013278AC
:1051000000093D0000042850100804008000400001
:105110001815E215AE154015A115C815A615A2154E
:105120002F15F8160015271581160715AE15A519A8
:10513000FF000000000196320101327800093D00B5
:105140000004285010040400800020001815E21507
:10515000AE154015A115C015A615A2152F15F816E8
:105160000015231581160A15AE15A519FF000000BC
:10517000000196320101327800093D0000042850F8
:1051800010080400800040001815E215AE15401507
:10519000A115C015A615A2152F15F8160015251571
:1051A0008116AA15AE15A519FF1815E215AE1560E2
:1051B00015A015C815A615A3152F15F81600152747
:1051C0001581161815AE15A519FF000000019632BD
:1051D0000101327800093D00000428501008010345
:1051E000800040001815AE15E215A315A015C015D6
:1051F0002F152615A61581161015AF19FF1815E2E3
:1052000015AE156015A015C815A615A2152F15F811
:10521000160015271581160815AE15A519FF0000F3
:10522000000196320101327800093D000004285047
:1052300010080103800040001815E215AE15401556
:10524000A015C815A615A3152F15F81600152715B6
:1052500081161815AE15A519FF0000000001963241
:105260000101327800093D000004285010080004B4
:10527000800040001815E215AE154015A015C815A0
:10528000A615A2152F15F816001527158116051558
:10529000AE15A519FF1815E215AE156015A015C8B5
:1052A00015A615A3152F15271581160915AE15A5D9
:1052B00019FF0000000196320101327800093D001B
:1052C0000004285011040000840020001815E21585
:1052D000AE154015A115C015A615A2152F15F81667
:1052E0000015231581161F15AE15A519FF00000026
:1052F00010530008000000202C000000060A0008DF
:105300003C5300082C00002094080000160A0008F6
:1053100000A24A0400000000000000000102030493
:105320000607080900000000000000000102030455
:0C53300001020304060708090204060835
:0400000508000131BD
:00000001FF
